:100000003FC073C058C057C056C055C054C053C03D
:1000100052C051C050C04FC04EC04DC04CC04BC06C
:100020004AC049C048C009021200010100C00A09C3
:10003000040000000000000012011001FF00000891
:10004000C016DC05000101020001180350006F001A
:100050007700650072005300770069007400630048
:1000600068001A037700770077002E006F006200A7
:100070006400650076002E0061007400040309042A
:1000800011241FBECFE5D4E0DEBFCDBF10E0A0E657
:10009000B0E0E4EBF6E002C005900D92A236B107A5
:1000A000D9F720E0A2E6B0E001C01D92A839B2075E
:1000B000E1F79BD1FDC2A4CFA82FB92F80E090E03B
:1000C00041E050EA609530E009C02D918227979574
:1000D000879510F084279527305EC8F36F5FA8F3EB
:1000E0000895EADF8D939D930895CF93CFB7CF9373
:1000F000DF93C395819BE9F7819B0BC0819B09C06E
:10010000819B07C0819B05C0819B03C0819B01C06F
:1001100089C06F93C0917B00DD27CE57DF4F2F93AF
:1001200065E5819B03C02F916F91E6CF0F931F93DD
:100130004F9320E040E15F9300B3067001FB27F985
:100140003F9350E03BE039C0167040642F77012F99
:100150005F5F1EC0406810B316702F7752501FC0EB
:10016000406400B32F770670D1F15F5F00C023C0F9
:10017000406210B32F77167091F15F5F00C025C009
:1001800006701027515012F45D5F00001150279542
:100190002C3F10B3C8F616700127015027952C3F4D
:1001A000C8F64227499300B3067010274F731150C9
:1001B00027952C3FA8F64695469510B3167079F012
:1001C0000127015027952C3F98F66B5A60F3315068
:1001D00000B3B0F600C010E41ABF002717C03B50B0
:1001E0003195C31BD04010E41ABF0881033CF9F0DD
:1001F0000B34E9F0209179001981110F1213EDCF22
:10020000093651F10D3211F0013E39F700938000AB
:100210003F915F914F911F910F912F916F91CAB7AD
:10022000C6FD67CFDF91CF91CFBFCF9118952091B9
:100230008000222369F310917E00112339F53430B8
:100240003AF130937E0020937A0010917B003BE0DE
:10025000311B30937B001CC000917E000130B4F450
:100260000AE53091610034FD14C000936100CEE6D0
:10027000D0E013C0052710E000C0000002BB1AC088
:10028000052710E0221F1DC010E021C04AE502C072
:1002900032ED432FC4E1D0E032E011B31660919A01
:1002A00002B311BB56E020E865E320FF052702BB3F
:1002B000279517951C3FF0F66695B8F7B1F720FF24
:1002C000052702BB279517951C3FD0F62795179554
:1002D00017FF052700001C3F02BBB0F629913A9595
:1002E00019F7097F10917F00110FC651D04002BB52
:1002F00011F01093790010E41ABF026011B3197F56
:10030000402F497F54E05A95F1F702BB11BB42BB25
:100310007FCFE5E6F0E04DE650E091E080E021910E
:100320002111892B990FE417F507C9F70895CF9389
:1003300085E290E0A8D1C82FECDF98B38C278C7FA2
:100340009370982B98BBCF910895CF93DF93EC01D6
:1003500085E290E098D123E630E030937D00209351
:100360007C009981911107C0F9018A8180838B817A
:10037000818382E037C0913039F4C3E6D0E08883CE
:10038000C8DF898382E02EC02EEF290F223040F58E
:100390002C812770422F50E061E070E002C0660FB0
:1003A000771F2A95E2F7282F2623923031F4682B05
:1003B00091E0211190E0292F02C0609568239A8175
:1003C000911108C0FA01EB59FF4F108285E290E0CD
:1003D00062D106C0222321F0FA01EB59FF4F90832E
:1003E000A6DF80E0DF91CF9108959EE088E10FB60F
:1003F000F894A89581BD0FBE91BD8FEF87BB18BA49
:1004000012BA89EF81BB93DF899A8FEFA895EFE34A
:10041000FFE13197F1F700C000008150B9F78998EA
:1004200085E083BF29D1789418E0CDE6D0E0A89587
:100430001DD008B600FEFBCF88B7816088BF8091D1
:1004400062009FEF980F909362008111F0CF10939C
:100450006200E5E6F0E08081882311F0815080831E
:100460003196EC17FD07B9F762DFE1CFCF93DF9349
:1004700080917E0083500AF499C090917A009D3259
:1004800009F092C0883009F08FC080917B00CCE0E9
:10049000D0E0C81BD109CE57DF4F83EC80936E00AC
:1004A0008AE58093610010926D008881982F907684
:1004B00019F0CE014ADF6FC02A811092770099812E
:1004C00091110BC08F7119F481E080937700109225
:1004D000780027E730E082E05AC0953031F420936D
:1004E0007F0027E730E080E052C09630E1F58B8155
:1004F000813041F488E390E090937D0080937C000C
:1005000082E12DC0823041F486E290E090937D003C
:1005100080937C0082E123C08330F1F4211108C074
:100520008CE790E090937D0080937C0084E017C07E
:10053000213041F482E690E090937D0080937C002E
:100540008AE10DC0223051F48AE490E090937D005E
:1005500080937C0088E103C080E001C080E090E4EB
:1005600090936D0018C0983079F0993031F4209351
:10057000810027E730E080E00AC081E09A3009F08E
:1005800080E027E730E003C021E830E081E03093ED
:100590007D0020937C009F81911104C09E8198175B
:1005A00008F4892F8093600010927E008091610092
:1005B00084FF4BC0809160008F3F09F446C0C82F74
:1005C000893008F0C8E08C1B80936000EEE6F0E014
:1005D000908188E889278083CC2309F444C0209146
:1005E0007C0030917D0080916D0086FF10C0AFE6E9
:1005F000B0E0F9018C2F94919D9331968150D9F7F9
:100600008FEF8C0F90E00196280F391F0EC0D90193
:10061000EFE6F0E08C2F9D9191938150E1F78FEF01
:100620008C0F90E00196280F391F30937D002093A6
:100630007C006C2F8FE690E054DDCC5FCC3018F45A
:100640008FEF80936000C093610080B3867089F45F
:1006500093E180B3867069F49150D9F710927F00CE
:100660001092790006C06C2F8FE690E03ADDCC5FE7
:10067000E7CFDF91CF91089585B7826085BF8BB7B3
:1006800080648BBF0895E199FECF9FBB8EBBE09A3B
:1006900099278DB30895262FE199FECF9FBB8EBB7E
:1006A0002DBB0FB6F894E29AE19A0FBE0196089519
:0406B000F894FFCFEC
:0206B400FF5AEB
:00000001FF
