S01200004E4741542D54494D45522E737265633A
S11300000C942A000C9447000C9447000C9447006D
S11300100C9447000C9447000C9447000C94470040
S11300200C9447000C941E010C9447000C94470058
S11300300C9447000C9447000C9447000C94470020
S11300400C9447000C9447000C9447000C94470010
S11300500C94470011241FBECFE5D4E0DEBFCDBF12
S113006010E0A0E6B0E0E2E7F8E002C005900D92EF
S1130070A437B107D9F720E0A4E7B0E001C01D928E
S1130080A637B207E1F70E9401010C9437040C94DF
S1130090000025B32F70982F907F922B95BBAB9ABD
S11300A0AB9830E1839FC0011124822B85BBAB9AAE
S11300B0AB9808958FEF84BBA49AA59AA69AA79AA1
S11300C0AA98AB98AB9AAD9AAB988FEC97E001974E
S11300D0F1F700C0000088E20E9449008FEC97E02D
S11300E00197F1F700C00000AA988CE00E94490033
S11300F08FEC97E00197F1F700C00000AA9886E022
S11301000E9449008FEC97E00197F1F700C00000CE
S11301100895AA9890E4899F600D1124862F815C2C
S11301200E9449008FEC97E00197F1F700C00000AE
S11301300895AA9A0E9449008FEC97E00197F1F77D
S113014000C000000895CF93DF93EC0188818823D9
S113015031F021960E94990089918111FBCFDF91A2
S1130160CF9108950F931F93CF93DF93CDB7DEB74D
S11301702A970FB6F894DEBF0FBECDBF9F938F931F
S113018080E690E09F938F938E010F5F1F4F1F9324
S11301900F930E946601C8010E94A3000F900F9064
S11301A00F900F900F900F902A960FB6F894DEBF21
S11301B00FBECDBFDF91CF911F910F91089512BE55
S11301C0811524E0920721F483B7856083BF0895E5
S11301D0811521E0920721F483B7846083BF0895D9
S11301E08034910521F483B7836083BF0895089711
S11301F021F483B7826083BF089583B7816083BF8E
S1130200089588B3836088BB87B387BB8C9A80E0EA
S113021094E00E94DF000E945A0084E682BF89B7FE
S1130220816089BF7894209174003091750082B701
S113023090E082179307D9F7949AF5CF1F920F9203
S11302400FB60F9211242F933F934F935F936F93A5
S11302507F938F939F93AF93BF93EF93FF93949860
S1130260B09909C0809174009091750001969093A3
S1130270750080937400B19909C0809174009091C5
S113028075000197909375008093740061E081E09C
S11302900E94890080917400909175000E94B200C0
S11302A080E790E00E94A30012BEFF91EF91BF91FE
S11302B0AF919F918F917F916F915F914F913F91FA
S11302C02F910F900FBE0F901F901895AEE0B0E0E5
S11302D0ECE6F1E00C940E040D891E8986E08C8313
S11302E01A8309838FEF9FE79E838D83AE01475E58
S11302F05F4F6F89788DCE0101960E948801EF814E
S1130300F885E00FF11F10822E96E4E00C942A0485
S1130310ACE0B0E0EEE8F1E00C9400047C016B0189
S11303208A01FC0117821682838181FFBDC1CE013F
S113033001964C01F7019381F60193FD859193FF9A
S113034081916F01882309F4ABC1853239F493FD9F
S1130350859193FF81916F01853229F4B70190E073
S11303600E947003E7CF512C312C20E02032A0F4FE
S11303708B3269F030F4803259F0833269F42061B1
S11303802CC08D3239F0803339F4216026C02260CC
S1130390246023C0286021C027FD27C030ED380F1A
S11303A03A3078F426FF06C0FAE05F9E300D11243F
S11303B0532E13C08AE0389E300D1124332E206250
S11303C00CC08E3221F426FD6BC1206406C08C362D
S11303D011F4206802C0883641F4F60193FD85913A
S11303E093FF81916F018111C1CF982F9F7D955407
S11303F0933028F40C5F1F4FFFE3F9830DC083365D
S113040031F0833771F0833509F05BC022C0F80105
S1130410808189830E5F1F4F44244394512C5401DF
S113042015C03801F2E06F0E711CF801A080B18094
S113043026FF03C0652D70E002C06FEF7FEFC5019A
S11304402C870E9465032C0183012C852F77222E93
S113045017C03801F2E06F0E711CF801A080B18062
S113046026FF03C0652D70E002C06FEF7FEFC5016A
S11304702C870E945A032C012C852068222E83018C
S113048023FC1BC0832D90E048165906B0F4B70135
S113049080E290E00E9470033A94F4CFF50127FCC7
S11304A0859127FE81915F01B70190E00E9470035E
S11304B031103A94F1E04F1A51084114510471F784
S11304C0E5C0843611F0893639F5F80127FF07C0F5
S11304D060817181828193810C5F1F4F08C06081AC
S11304E07181882777FD8095982F0E5F1F4F2F7697
S11304F0B22E97FF09C090958095709561957F4FB6
S11305008F4F9F4F2068B22E2AE030E0A4010E9452
S1130510A203A82EA81844C0853729F42F7EB22E32
S11305202AE030E025C0F22FF97FBF2E8F36C1F0CC
S113053018F4883579F0B4C0803719F0883721F081
S1130540AFC02F2F2061B22EB4FE0DC08B2D84605E
S1130550B82E09C024FF0AC09F2F9660B92E06C08A
S113056028E030E005C020E130E002C020E132E0C4
S1130570F801B7FE07C060817181828193810C5FAD
S11305801F4F06C06081718180E090E00E5F1F4FB5
S1130590A4010E94A203A82EA818FB2DFF77BF2E4A
S11305A0B6FE0BC02B2D2E7FA51450F4B4FE0AC04A
S11305B0B2FC08C02B2D2E7E05C07A2C2B2D03C037
S11305C07A2C01C0752C24FF0DC0FE01EA0DF11D2B
S11305D08081803311F4297E09C022FF06C0739400
S11305E0739404C0822F867809F0739423FD13C09A
S11305F020FF06C05A2C731418F4530C5718732C8C
S1130600731468F4B70180E290E02C870E947003B1
S113061073942C85F5CF731410F4371801C0312C62
S113062024FF12C0B70180E390E02C870E9470037E
S11306302C8522FF17C021FF03C088E590E002C08B
S113064088E790E0B7010CC0822F867859F021FD2D
S113065002C080E201C08BE227FD8DE2B70190E089
S11306600E947003A51438F4B70180E390E00E945F
S113067070035A94F7CFAA94F401EA0DF11D808116
S1130680B70190E00E947003A110F5CF332009F464
S113069051CEB70180E290E00E9470033A94F6CF05
S11306A0F7018681978102C08FEF9FEF2C96E2E1DC
S11306B00C941C04FC010590615070400110D8F7A3
S11306C0809590958E0F9F1F0895FC016150704096
S11306D001900110D8F7809590958E0F9F1F089573
S11306E00F931F93CF93DF93182F092FEB018B8167
S11306F081FD03C08FEF9FEF20C082FF10C04E81A9
S11307005F812C813D81421753077CF4E881F98194
S11307109F012F5F3F4F39832883108306C0E885EC
S1130720F985812F0995892B29F72E813F812F5F28
S11307303F4F3F832E83812F902FDF91CF911F91C5
S11307400F910895FA01AA27283051F1203181F13F
S1130750E8946F936E7F6E5F7F4F8F4F9F4FAF4FC5
S1130760B1E03ED0B4E03CD0670F781F891F9A1FD8
S1130770A11D680F791F8A1F911DA11D6A0F711D8C
S1130780811D911DA11D20D009F468943F912AE098
S1130790269F11243019305D3193DEF6CF01089580
S11307A0462F4770405D4193B3E00FD0C9F7F6CFB1
S11307B0462F4F70405D4A3318F0495D31FD405279
S11307C0419302D0A9F7EACFB4E0A695979587950F
S11307D077956795BA95C9F70097610571050895EE
S11307E09B01AC010A2E069457954795379527959A
S11307F0BA95C9F7620F731F841F951FA01D089532
S11308002F923F924F925F926F927F928F929F921C
S1130810AF92BF92CF92DF92EF92FF920F931F930A
S1130820CF93DF93CDB7DEB7CA1BDB0B0FB6F894BB
S1130830DEBF0FBECDBF09942A88398848885F84FB
S11308406E847D848C849B84AA84B984C884DF806C
S1130850EE80FD800C811B81AA81B981CE0FD11D50
S11308600FB6F894DEBF0FBECDBFED010895F89426
S1050870FFCFB4
S11308722564002020202020202020202020202049
S1070882202020000E
S9030000FC
