:100000000C942A000C9447000C9447000C947F0831
:100010000C9447000C9447000C9447000C94470044
:100020000C9447000C9447000C9447000C94470034
:100030000C9447000C9447000C9447000C94470024
:100040000C9447000C9447000C9447000C94470014
:100050000C94470011241FBECFE5D4E0DEBFCDBF16
:1000600010E0A0E6B0E0E8E7F4E102C005900D92F0
:10007000AE3FB107D9F723E0AEEFB0E001C01D926B
:10008000A835B207E1F70E9482090C943A0A0C9451
:1000900000000F931F93E0910101F09102019B0179
:1000A000AC01225031094109510980859185A28511
:1000B000B3850297A109B109281739074A075B07D9
:1000C00068F4A181B0E00E94200A0489158926897C
:1000D0003789600F711F821F931F03C060E070E0BB
:1000E000CB011F910F9108950F931F93CF93DF932F
:1000F000EC01E0910101F0910201198218826C81FA
:100100007D818E819F81613071058105910559F155
:100110000085118522853385601771078207930753
:1001200020F5611571058105910509F58081833000
:1001300019F56089718982899389688779878A87A7
:100140009B87611571058105910519F00E94490091
:1001500004C060897189828993896C877D878E87C5
:100160009F8780E00EC081E00CC081E00AC06887F4
:1001700079878A879B87EACF188619861A861B8615
:10018000E8CFDF91CF911F910F9108955D9BFECF36
:100190008CB90895CF93DF93EC018881882339F0DF
:1001A000219690E00E94C60089918111FACFDF91DB
:1001B000CF91089510BC83E389B986E880BD88E9B2
:1001C0008AB9089587B3806B87BB88B3806F88BB7B
:1001D00083E58DB91EB808958FB9779BFECF08953A
:1001E0008FEF8FB9779BFECF8FB10895FF920F935A
:1001F0001F93CF93DF93C82FD42F152F062FF72EE1
:1002000088234CF440E050E0BA0187E70E94F600F2
:10021000823040F5CF77C49A0E94F000C4980E94C3
:10022000F0008C2F0E94EC008F2D0E94EC00802F9C
:100230000E94EC00812F0E94EC008D2F0E94EC00A8
:10024000C03421F0C83421F081E003C085E901C049
:1002500087E80E94EC00CAE00E94F000882314F4B2
:10026000C150D1F7DF91CF911F910F91FF90089569
:10027000CF92DF92EF92FF920F931F93CF93DF9372
:100280007C01E9018091000183FD09C0032E39E062
:10029000440F551F661F771F3A95D1F7302D81E522
:1002A0000E94F60081113CC00F2EF0E3CF2EF5E73F
:1002B000DF2EF02D0E94F0008F3F39F481E0C81A44
:1002C000D108C114D104B1F72DC08E3F69F582E089
:1002D00092E06C01C01AD10ACC1ADD0A209729F0ED
:1002E0000E94F00021972097D9F7E114F10451F012
:1002F000E7010E94F00089930150110901151105D1
:10030000C1F705C00150110901151105D9F70E9467
:10031000F00081E0C81AD108C114D104C1F706C0A9
:10032000C1E005C0C1E003C0C1E001C0C0E00E945F
:10033000F0008C2FDF91CF911F910F91FF90EF90E4
:10034000DF90CF900895CF92DF92EF92FF920F93BC
:100350001F93CF93DF93EC016A017B0102E010E071
:100360002EEF31E00E943801811126C088819981E9
:1003700085359A4A19F526E330E0B701A601CE018A
:100380000E943801811105C0888199818634914489
:10039000B9F002E010E022E530E0B701A601CE019D
:1003A0000E94380181110EC081E0288139812634F4
:1003B000314449F480E007C083E005C082E003C017
:1003C00080E001C081E0DF91CF911F910F91FF90FC
:1003D000EF90DF90CF9008954F925F926F927F924F
:1003E000AF92BF92CF92DF92EF92FF920F931F9343
:1003F000CF93DF9300D000D0CDB7DEB76B017C0187
:10040000A0900101B090020182E0C816D104E1047D
:10041000F10408F4B8C0F50180859185A285B38503
:10042000C816D906EA06FB0608F0B2C08081823001
:1004300009F461C0833009F47CC0813009F0ADC09B
:100440002601569447944C0C5D1C92013170452C4A
:10045000552446942F3FF1E03F0791F0F501448584
:10046000558566857785440D551D611D711D02E01A
:1004700010E0CE0101960E943801882359F192C004
:10048000612C712CF5014485558566857785440D71
:10049000551D661D771D01E010E02FEF31E0CE0104
:1004A00001960E943801811182C0F501448555856D
:1004B000668577854F5F5F4F6F4F7F4F440D551DAA
:1004C000661D771D20E030E0CE0102960E943801C3
:1004D000811172C069817A81C0FE09C072956295EE
:1004E0006F7067277F70672780E090E073C07F7030
:1004F00080E090E06FC096013327220F331F7727EB
:100500006F2D5E2D4D2DF50184859585A685B785CA
:10051000480F591F6A1F7B1F02E010E0CE010196B1
:100520000E94380181114DC069817A8180E090E09C
:1005300051C096012F773327220F331F220F331F0D
:10054000B701A601689416F8769567955795479573
:100550001694D1F7F50184859585A685B785480F52
:10056000591F6A1F7B1F04E010E0CE0101960E9414
:10057000380181112BC089819A81AB81BC81BC017A
:10058000CD019F7027C061E070E080E090E022C064
:1005900061E070E080E090E01DC061E070E080E02C
:1005A00090E018C061E070E080E090E013C061E08E
:1005B00070E080E090E00EC061E070E080E090E0EC
:1005C00009C061E070E080E090E004C061E070E0AC
:1005D00080E090E00F900F900F900F90DF91CF91FF
:1005E0001F910F91FF90EF90DF90CF90BF90AF9051
:1005F0007F906F905F904F900895CF92DF92EF922F
:10060000FF920F931F93CF93DF93EC01E0900101D2
:10061000F0900201088119810F5F1F4F011511052C
:1006200009F457C04C855D856E857F854115510560
:100630006105710509F44FC0C8018F709927892B96
:1006400009F043C04F5F5F4F6F4F7F4F4C875D870F
:100650006E877F87688579858A859B856115710599
:100660008105910539F4F7018481958108171907EF
:10067000A0F52BC0F701218130E021503109A801FC
:10068000529542954F7045275F70452724233523A7
:10069000232BD9F40E94EC0162307105810591058C
:1006A000F0F0F701C084D184E284F3846C157D05F9
:1006B0008E059F05B0F4688779878A879B870E949B
:1006C00049006C877D878E879F871983088380E028
:1006D00009C083E007C083E005C083E003C081E078
:1006E00001C083E0DF91CF911F910F91FF90EF90B8
:1006F000DF90CF9008952F923F924F925F926F922A
:100700007F928F929F92AF92BF92CF92DF92EF92A1
:10071000FF920F931F93CF93DF937C015B01DB016B
:100720008C91803241F4FB013196BFEFAB1ABB0ACA
:1007300081918032D1F38F3219F4EFEFAE1ABE0AF5
:10074000D70114961D921D921D921C921797F501C8
:100750008081813268F4C7010E947400582FE091B3
:100760000101F09102010680F781E02D1082CEC0D8
:100770006894992495F8612C6894442443F8342CA7
:100780000F2EFBE02F2EF02D55245394852C762C24
:10079000F701A281B381FD01CD010B969192E8177B
:1007A000F907E1F7962D862D342D01C0822F21E027
:1007B000280FF501E80FF11D80818132C8F08F32DA
:1007C000B9F08E3209F494C0931790F488232CF476
:1007D000E82FF0E0E250F04080814FE9480F4A31C5
:1007E00008F48052FD01E90FF11D80839F5FDECF89
:1007F000A20EB11C952D813208F0962D1B969C936C
:10080000C7010E947400582F811178C0E091010146
:10081000F0910201C680D780E6012B96D7012D9179
:100820003C9111972F703327220F331F2295329559
:10083000307F3227207F32271C964D915D916D913C
:100840007C911F9700E210E0C6010E943801582DEC
:10085000811101C0572D511151C0F60180818823AB
:10086000C9F0838583FD0FC0D70112962D913C916D
:100870001397D90104C0EC17FD0709F442C0419158
:100880009D914917C1F3C7010E94FD02582F88238B
:1008900029F234C0D7011296ED91FC91139783850C
:1008A000882311F11FC0E0910101F091020106803F
:1008B000F781E02D838584FF19C084899589A0E0A4
:1008C000B0E0DC0199278827428D538D60E070E00D
:1008D000842B952BA62BB72BF70184839583A683B6
:1008E000B78356CF53E012C054E010C054E00EC09E
:1008F000383009F07DCF932D322D58CF533031F45D
:10090000C9CFD9011B968C91882369F2852FDF917D
:10091000CF911F910F91FF90EF90DF90CF90BF90FC
:10092000AF909F908F907F906F905F904F903F908F
:100930002F9008950F931F93CF93DF93CDB7DEB71A
:10094000EC970FB6F894DEBF0FBECDBF009101014A
:100950001091020101151105E1F1F80112829E01C9
:10096000235E3F4F378326832C5031093C832B83F2
:10097000BC01CE0101960E947B0381112FC08D8D99
:10098000882349F188A584FD28C089A99AA9A0E0F7
:10099000B0E0DC01992788274FA958AD60E070E0EE
:1009A000842B952BA62BB72BF80180A391A3A2A390
:1009B000B3A389AD9AADABADBCAD848F958FA68F37
:1009C000B78F108E118E128E138E81E0828380E09D
:1009D00005C086E003C083E001C083E0EC960FB65B
:1009E000F894DEBF0FBECDBFDF91CF911F910F9165
:1009F00008952F923F924F925F926F927F928F92C3
:100A00009F92AF92BF92CF92DF92EF92FF920F939D
:100A10001F93CF93DF932C016B013A01C091010129
:100A2000D0910201FA0111821082209709F4B5C019
:100A30008A8180FFB4C08C8D9D8DAE8DBF8D488D19
:100A4000598D6A8D7B8D841B950BA60BB70BA60168
:100A500060E070E084179507A607B70708F46C01FB
:100A6000C114D10409F49DC05201812C68949924C9
:100A700091F8312C212CE88CF98C0A8D1B8DD80132
:100A8000C7019170AA27BB27892B8A2B8B2B09F0D2
:100A900049C0298130E040E050E0C801B701052E8F
:100AA00059E096958795779567955A95D1F7502D8A
:100AB0000E94FE09672B682B692BD1F4EF28E02AEE
:100AC000E12A29F468A179A18AA19BA106C06CA1A1
:100AD0007DA18EA19FA10E94EC016230710581056C
:100AE000910508F457C06CA37DA38EA39FA31B821E
:100AF0006CA17DA18EA19FA10E9449006115710585
:100B00008105910509F446C02B8131E0320F3B830A
:100B1000DC01CB01820F911DA11DB11D88A799A7F2
:100B2000AAA7BBA7288D398D3170C401821B930BF6
:100B300076018C159D0508F47C0148A559A56AA588
:100B40007BA54114510419F4832D922D02C08A2DE6
:100B50009B2D87010E94380181111CC0888D998DC1
:100B6000AA8DBB8D8E0D9F1DA11DB11D888F998FE4
:100B7000AA8FBB8FAE0CBF1CCE18DF08F30180819B
:100B80009181E80EF91EF182E082C114D10409F0CE
:100B900072CF09C01A8281E007C086E005C085E0F7
:100BA00003C080E001C080E0DF91CF911F910F91E1
:100BB000FF90EF90DF90CF90BF90AF909F908F907D
:100BC0007F906F905F904F903F902F900895CF92BD
:100BD000DF92EF92FF920F931F93CF93DF930097D3
:100BE00031F17A014115510509F46EC00091FE0002
:100BF0001091FF000115110509F468C0EC016801AE
:100C000089910E94EC009601215031093093FF0038
:100C10002093FE00C801821B930B8E159F0509F4DB
:100C200057C02115310509F455C06901E9CF4115B7
:100C300051056105710501F18091000183FD09C035
:100C4000032E39E0440F551F661F771F3A95D1F7E1
:100C5000302D88E50E94F60081113EC08FEF0E9482
:100C6000EC008EEF0E94EC0080E092E09093FF0099
:100C70008093FE0010E031C0C091FE00D091FF00D3
:100C8000CE3F8FEFD80741F080E00E94EC00219723
:100C9000CE3F8FEFD807C1F70E94F0008F718530EB
:100CA00079F4C8EEDDEF01C021970E94F0008F3F7C
:100CB00011F02097C9F711E0CD2B19F010E001C019
:100CC00011E00E94F00009C010E007C010E005C06C
:100CD00010E003C010E001C011E0812FDF91CF913F
:100CE0001F910F91FF90EF90DF90CF900895EF92BA
:100CF000FF920F931F93CF93DF9300D000D0CDB717
:100D0000DEB70E94E200C499BAC040E050E0BA01E8
:100D100080E090E00E94E705B2C00E94F000115010
:100D2000E1F740E050E0BA0180E40E94F600813033
:100D300009F083C04AEA51E060E070E088E40E9474
:100D4000F600813009F047C07E0185E0E80EF11C15
:100D50008E010F5F1F4F0E94F000F80181938F01F9
:100D6000EE15FF05C1F78B81813009F068C08C81D9
:100D70008A3A09F066C000EE1EE206C00150110971
:100D80000115110509F45FC040E050E060E070E437
:100D900089EE0E94F6008111F1CF012B09F455C0B4
:100DA00040E050E0BA018AE70E94F60081114FC08E
:100DB0008E010F5F1F4F0E94F000F80181938F0199
:100DC000EE15FF05C1F7898186FF43C00F2EFCE0B9
:100DD000FF2EF02D47C040E050E0BA0189EE0E949E
:100DE000F600823040F46894FF24F1F80F2EF9EEFB
:100DF000EF2EF02D06C0FF24F3940F2EF1E4EF2E1A
:100E0000F02D08EA11E605C0015011090115110580
:100E100021F140E050E0BA018E2D0E94F6008111D0
:100E2000F3CF012BE1F040E052E060E070E080E5BC
:100E30000E94F600811115C015C0F12C13C0F12CD1
:100E400011C0F12C0FC0F12C0DC0F12C0BC0F12CF6
:100E500009C06894FF24F2F805C0F12C03C0F12CFE
:100E600001C0F12CF09200010E94F0008DB18C7F46
:100E70008DB9709A81E0FF2021F080E002C014E675
:100E80004CCF0F900F900F900F90DF91CF911F914B
:100E90000F91FF90EF9008954F925F926F927F9223
:100EA0009F92AF92BF92CF92DF92EF92FF920F93F9
:100EB0001F93CF93DF93CDB7DEB7A8970FB6F89403
:100EC000DEBF0FBECDBF5C01109202011092010186
:100ED000009709F4ECC00E94770680FDEAC040E06C
:100EE00050E0BA01CE0101960E94A3018130E1F4E5
:100EF00000E110E02EEB31E040E050E0BA01CE011D
:100F000001960E9438018111D6C08D81882309F491
:100F1000D4C049845A846B847C84B301A201CE017D
:100F200001960E94A30103C0412C512C3201833051
:100F300009F4C5C08111C5C004E210E02DE030E025
:100F4000B301A201CE0101960E9438018111BBC0FC
:100F50002A853B8540E050E02115310541055105CA
:100F600021F4288D398D4A8D5B8DAC81B0E00E94D3
:100F7000200A6B017C018A819B818C0120E030E09A
:100F8000400E511E621E731ED5011C964D925D923D
:100F90006D927C921F97998011969C921197ED818A
:100FA000FE811596FC93EE9314976F817885CB01A3
:100FB000A0E0B0E00097A105B10521F48C899D89DE
:100FC000AE89BF89F295E295EF70EF27FF70EF27AA
:100FD000AF0160E070E04DA35EA36FA378A7801B14
:100FE000910BA20BB30B8C199D09AE09BF09BC0173
:100FF000CD012DA13EA14FA158A5621B730B840BFF
:10100000950B292D30E040E050E00E94FE09BA0126
:10101000A9014E5F5F4F6F4F7F4FD50118964D93DB
:101020005D936D937C931B97473FBFE05B07610522
:10103000710510F481E001C082E0473F5F4F610518
:10104000710508F042C0D5018C93833051F488A11A
:1010500099A1AAA1BBA1F501808B918BA28BB38B27
:101060000BC0D701C601840D951DA61DB71DF50146
:10107000808B918BA28BB38B2DA13EA14FA158A544
:10108000420E531E641E751EC40CD51CE61CF71CB4
:10109000D5015496CD92DD92ED92FC92579712961F
:1010A0001C92B0920201A092010180E012C080E087
:1010B00010C082E00EC081E00CC087E00AC081E071
:1010C00008C087E006C081E004C083E0F5018083AA
:1010D000BECFA8960FB6F894DEBF0FBECDBFDF918E
:1010E000CF911F910F91FF90EF90DF90CF90BF9025
:1010F000AF909F907F906F905F904F9008951F9258
:101100000F920FB60F9211242F938F939F93EF930B
:10111000FF93E0915603F0915703EB5BFE4F808104
:1011200090E09BBD8ABD8091560390915703019634
:1011300090935703809356038115924020F01092AC
:10114000570310925603FF91EF919F918F912F912A
:101150000F900FBE0F901F9018950F931F93CF9372
:10116000DF9300D0CDB7DEB78C0189E191E00E941A
:101170004C07C8010E949A04809355038111A9C0AD
:10118000AE014F5F5F4F60E470E085E491E00E9444
:10119000F9048093550381119EC089819A8180341E
:1011A000910509F09AC080914501823561F48091E2
:1011B0004601893441F480914701863421F48091BD
:1011C0004801863419F082E08093550380914D01E7
:1011D000873561F480914E01813441F480914F0153
:1011E000863521F480915001853419F082E0809396
:1011F000550380915101863661F4809152018D36FC
:1012000041F480915301843721F48091540180325C
:1012100019F082E08093550380915901813021F4C7
:1012200080915A01882321F082E08093550304C005
:1012300080915503823031F480E090E00E944C07A9
:1012400085E059C0AE014F5F5F4F60E072E085E41A
:1012500091E00E94F90480935503811140C080E819
:1012600089BF20E000E011E001C0202F211139C02A
:1012700080915603909157038F3F9105B9F3B0F3D6
:10128000AE014F5F5F4F60E071E085E491E00E9446
:10129000F90489819A818F3F910591F088F0212F7F
:1012A00020C0AE014F5F5F4F60E071E085E492E0E7
:1012B0000E94F90489819A818F3F910509F0A8F66F
:1012C00019BE80E090E00E944C078093550380E0B7
:1012D00012C081E010C084E00EC084E00CC083E046
:1012E0000AC080915603909157038F3F910511F0EA
:1012F00008F0BCCFD6CF0F900F90DF91CF911F9108
:101300000F9108950E94DA0083E690E00E94CA00DF
:101310008FEF87BB81BB12BA18BA83EA8FBD89E110
:101320008EBD81E88FBD89E08EBD8AE085BD8CE2EF
:1013300083BDC0982FEF89E698E12150804090400E
:10134000E1F700C00000C09A2FEF89E698E1215034
:1013500080409040E1F700C0000078940E9477063A
:10136000C82F8823D9F086E690E00E94CA00C09872
:101370002FE78AE196E0215080409040E1F700C0DD
:101380000000C09A2FE78AE196E02150804090400B
:10139000E1F700C00000C15031F70EC0C0988CE6E4
:1013A00090E00E94CA008FE690E00E94AD0886E7B8
:1013B00090E00E94CA00C09A2FEF89E698E1215080
:1013C00080409040E1F700C0000089E790E00E9473
:1013D000CA002FEF80E792E0215080409040E1F773
:1013E00000C00000C09A2FEF80E792E021508040BB
:1013F0009040E1F700C00000C098E7CFA1E21A2EAC
:10140000AA1BBB1BFD010DC0AA1FBB1FEE1FFF1FA8
:10141000A217B307E407F50720F0A21BB30BE40BF8
:10142000F50B661F771F881F991F1A9469F760953F
:101430007095809590959B01AC01BD01CF010895F9
:101440000E942B0AA59F900DB49F900DA49F800D24
:10145000911D11240895A29FB001B39FC001A39FC5
:10146000700D811D1124911DB29F700D811D1124DD
:08147000911D0895F894FFCFCF
:10147800256900310D00574149540D00320D0032E5
:10148800322E77617600330D00454E440D00809A68
:1014980090418E418F804545454949498E8F9092AC
:1014A800924F994F555559999A9B9C9D9E9F41499A
:1014B8004F55A5A5A6A7A8A9AAABAC21AEAFB0B1B8
:1014C800B2B3B4B5B6B7B8B9BABBBCBDBEBFC0C17C
:1014D800C2C3C4C5C6C7C8C9CACBCCCDCECFD0D16C
:1014E800D2D3D4D5D6D7D8D9DADBDCDDDEDFE0E15C
:1014F800E2E3E4E5E6E7E8E9EAEBECEDEEEFF0F14C
:0E150800F2F3F4F5F6F7F8F9FAFBFCFDFEFF3E
:00000001FF
