:100000000C942A000C948D010C9447000C9447002A
:100010000C9447000C9447000C9447000C94470044
:100020000C9447000C9447000C9447000C94470034
:100030000C9447000C9447000C9447000C94470024
:100040000C9447000C9447000C9447000C94470014
:100050000C94470011241FBECFE5D4E0DEBFCDBF16
:1000600010E0A0E6B0E0E6EBF3E002C005900D92F0
:10007000AE36B107D9F720E0AEE6B0E001C01D9280
:10008000A437B207E1F70E944C010C94D9010C94FB
:100090000000E0917200F0917300208131812833DB
:1000A000310561F4A99AA89888BBA998A99A8FE804
:1000B00091E00197F1F700C00000089528B3A99AD4
:1000C000A8982F70982F907F922B98BBA998A99AE7
:1000D00030E1839FC0011124822B88BBA998A99A83
:1000E0008FE891E00197F1F700C000000895E091DA
:1000F0007200F0917300208131812833310561F461
:10010000A99AA89A88BBA998A99A8FE891E0019723
:10011000F1F700C00000089528B3A99AA89A2F709B
:10012000982F907F922B98BBA998A99A30E1839F32
:10013000C0011124822B88BBA998A99A8FE891E06D
:100140000197F1F700C000000895A99AA89880913E
:10015000600088BBA998A99A8FE891E00197F1F710
:1001600000C0000080E690E09093730080937200DE
:100170008EE00E94490086E00E9449000895E091C7
:100180007200F09173002081318128333105A9F488
:100190009B01215031092E31310518F5813091052F
:1001A00029F48FE7860F0E94490008950297C9F449
:1001B0008FEB860F0E94490008959B012150310961
:1001C0002E31310570F48130910529F48FE7860FC7
:1001D0000E9449000895029721F48FEB860F0E9438
:1001E00049000895EF92FF920F931F93CF93DF93EF
:1001F000E62EF12C1E141F049CF4082F192FC0E0CA
:10020000D0E0F80181918F01882319F00E947700D6
:1002100003C080E20E9477002196CE15DF058CF3A3
:10022000DF91CF911F910F91FF90EF900895EF9282
:10023000FF920F931F93CF93DF93EC0168EE73E06F
:100240000E94B1017C0180E3860F0E94770004E6E2
:1002500010E0C701B8010E94B10180E3860F0E943F
:100260007700CE01B8010E94B1010AE010E0B801A8
:100270000E94B10180E3860F0E947700CE01B80191
:100280000E94B101805D0E947700DF91CF911F91A4
:100290000F91FF90EF9008958FEF84BB87BB11BA49
:1002A000909A85B7826085BF85B7886085BF8BB718
:1002B00080648BBF8BB780688BBF78940E94A50049
:1002C00067E082E690E00E94F20010926F001092C8
:1002D0006E0068E070E081E090E00E94BF008091D5
:1002E0006E0090916F000E94170161E070E082E063
:1002F00090E00E94BF008091700090917100892B66
:1003000031F461E08AE690E00E94F200E2CF61E021
:100310008CE690E00E94F200DCCF1F920F920FB6A5
:100320000F9211248F939F9380916E0090916F0094
:10033000019690936F0080936E00809905C0109293
:1003400071001092700006C081E090E090937100FF
:10035000809370009F918F910F900FBE0F901F9010
:10036000189597FB072E16F4009407D077FD09D057
:100370000E94C50107FC05D03EF4909581959F4FE2
:100380000895709561957F4F0895AA1BBB1B51E19D
:1003900007C0AA1FBB1FA617B70710F0A61BB70BF5
:1003A000881F991F5A95A9F780959095BC01CD019A
:0603B0000895F894FFCF50
:0E03B600380058554E47203D200054004E00A0
:00000001FF
