:100000000C942A000C9447000C9447000C94470071
:100010000C9447000C9447000C9447000C94470044
:100020000C9447000C9447000C9447000C946A0011
:100030000C9447000C9447000C9447000C94470024
:100040000C9447000C9447000C9447000C94470014
:100050000C94470011241FBECFE5D4E0DEBFCDBF16
:1000600010E0A0E6B0E0EEE3F1E002C005900D92F2
:10007000A038B107D9F720E0A0E8B0E001C01D9298
:10008000A238B207E1F70E945D000C949D000C9429
:1000900000005D9BFECF8CB90895CF93DF93EC01F8
:1000A0008881882339F0219690E00E944900899147
:1000B0008111FACFDF91CF91089510BC83E389B904
:1000C00086E880BD88E98AB987E790E00E944D0004
:1000D0007894FFCF1F920F920FB60F9211242F9397
:1000E0003F934F935F936F937F938F939F93AF93C0
:1000F000BF93EF93FF938CB190E090938100809336
:1001000080000E9449002FEF80E792E0215080405C
:100110009040E1F700C00000FF91EF91BF91AF91D7
:100120009F918F917F916F915F914F913F912F910F
:0E0130000F900FBE0F901F901895F894FFCF00
:10013E002564002020202020202020202020202088
:10014E002020200025690053494C454E434552005E
:00000001FF
