:1000000012C02CC02BC02AC029C028C027C026C0BF
:1000100025C024C023C022C021C020C01FC01EC0D4
:100020001DC01CC01BC011241FBECFE5D4E0DEBF25
:10003000CDBF10E0A0E6B0E0ECECF4E002C005902B
:100040000D92A036B107D9F720E0A0E6B0E001C0DC
:100050001D92A436B207E1F726D236C2D1CF8FEF78
:1000600081BB84B38F6184BB0895AB98A99AAC9887
:1000700082BBAA98AA9AAC9A0895AB9AA99AAC980E
:1000800082BBAA98AA9AAC9A089582BBAA98AA9A07
:100090000895CF93C82F86E3E8DFC130A9F028F098
:1000A000C23009F1C33071F13BC088E4E6DF80E87B
:1000B00090E0909363008093620080EA90E09093D8
:1000C0006100809360002CC088E2D7DF80EA90E076
:1000D000909363008093620080E890E090936100C9
:1000E000809360001DC088E8C8DF80E890E09093AE
:1000F00063008093620080EA90E0909361008093B7
:1001000060000EC088EEB9DF80EA90E09093630053
:100110008093620080E890E090936100809360009B
:10012000CF910895AF92BF92CF92DF92EF92FF925C
:100130000F931F93CF93DF93C82FD92F6A017B01B1
:10014000192F082FAC98AB988CE29FDFAB9A8D2FBC
:100150009CDF8C2F9ADF81E0C81AD108E108F108F2
:10016000B701A601689415F8769567955795479558
:100170001694D1F79A01DC1729F0EA016894AA24B1
:10018000A4F839C090E112C0AA98AA9AAA98AA9A8B
:10019000AA98AA9AAA98AA9AAA98AA9AAA98AA9A47
:1001A000AA98AA9AAA98AA9A815071F7215031095F
:1001B00010F0892FE9CF9C2D9F738FEF890F992322
:1001C00041F1AA98AA9AAA98AA9A8150D0F721C078
:1001D000812F5BDF802F59DF812F57DF802F55DF85
:1001E000812F53DF802F51DF812F4FDF802F4DDF95
:1001F000BA9471F72197209711F0BA2CE9CF8C2D82
:100200008F7339F0C82E812F40DF802F3EDFCA94D4
:10021000D1F7AC9ADF91CF911F910F91FF90EF90A2
:10022000DF90CF90BF90AF900895AC9AAA9AA99A08
:10023000A898A89AAC9881E018DF83E0AA98AA9AB7
:100240008150E1F7AC9A08950F931F93CF93DF93FA
:10025000C42FD52F162F072FAC98AB9816DFAB9A6B
:10026000802F13DF812F11DF8D2F0FDF8C2F0DDFFC
:10027000AC9ADF91CF911F910F9108950F931F9327
:10028000CF93DF93FC018B01CA01E901AC98AF0168
:1002900060E070E0BA0155274427A0E0B0E0482BA9
:1002A000592B6A2B7B2B8AE2CFDFA80160E070E03C
:1002B000BA0155274427CE01A0E0B0E0482B592BC6
:1002C0006A2B7B2B8BE2C0DFAC9ADF91CF911F9121
:1002D0000F910895CF93DF93EC012091600030914E
:1002E00061002150310940916200509163004150FA
:1002F000510960E070E080E090E0C0DF2091620092
:1003000030916300A0916000B0916100D1D0AB0149
:10031000BC01CE0107DFDF91CF910895A0DE85DF1C
:100320002FEF81EE94E0215080409040E1F700C033
:100330000000AC9881E099DE8BEC97DE89E39DDECE
:100340008CE29BDE80E099DE84E397DE82E095DE3E
:100350008FEC8BDE80E091DE81EC8FDE80E38DDE42
:1003600088EE83DE85E889DE80E087DE88E785DE4B
:100370008AEE7BDE80E081DE80E07FDE8DEE75DE62
:1003800084E67BDE83E079DE82E177DE81E875DE7C
:1003900087EF6BDE80E271DE80EC67DE80E16DDE90
:1003A00081EC63DE80E169DE85EC5FDE8EE365DE95
:1003B00088E263DE87EC59DE86E85FDE81E069DE95
:1003C0008AE353DE85E559DE81EB4FDE80E055DEC2
:1003D00088E153DE86EB49DE88E04FDE82E84DDEC1
:1003E00087E24BDE82EF41DE80E047DE86E23DDEE3
:1003F00081E043DE80EE39DE8FE03FDE81E33DDEEB
:100400008BE23BDE8CE039DE8EE037DE88E035DEE5
:100410008EE433DE81EF31DE87E32FDE87E02DDEF1
:1004200080E12BDE83E029DE8EE027DE89E025DE19
:1004300080E023DE81EE19DE80E01FDE8EE01DDE2F
:1004400084E11BDE83E019DE81E117DE87E015DE43
:1004500081E313DE81EC11DE88E40FDE88E00DDE3F
:100460008FE00BDE8CE009DE81E307DE86E305DE4C
:100470008FE003DE81E1F9DD2FEF82E597E0215087
:1004800080409040E1F700C0000089E2EEDD8CE2A0
:10049000F4DD2FEF82E597E0215080409040E1F7B6
:1004A00000C0000008953ADF80E090E013DFFFCF46
:1004B000A29FB001B39FC001A39F01D0B29F700D56
:0C04C000811D1124911D0895F894FFCFB8
:00000001FF
