:100000000C942A000C9447000C9447000C94470071
:100010000C9447000C9447000C9447000C94470044
:100020000C9447000C9447000C9447000C94470034
:100030000C9447000C9447000C9447000C94470024
:100040000C9447000C9447000C9447000C94470014
:100050000C94470011241FBECFE5D4E0DEBFCDBF16
:1000600010E0A0E6B0E0EEE5F5E002C005900D92EC
:10007000AC36B107D9F720E0ACE6B0E001C01D9284
:10008000AE36B207E1F70E9450010C94AD020C9419
:100090000000E0916C00F0916D00208131812833E7
:1000A000310561F4A99AA89882BBA998A99A8FE80A
:1000B00091E00197F1F700C00000089522B3A99ADA
:1000C000A8982F70982F907F922B92BBA998A99AED
:1000D00030E1839FC0011124822B82BBA998A99A89
:1000E0008FE891E00197F1F700C000000895E091DA
:1000F0006C00F0916D00208131812833310561F46D
:10010000A99AA89A82BBA998A99A8FE891E0019729
:10011000F1F700C00000089522B3A99AA89A2F70A1
:10012000982F907F922B92BBA998A99A30E1839F38
:10013000C0011124822B82BBA998A99A8FE891E073
:100140000197F1F700C000000895A99AA89880913E
:10015000600082BBA998A99A8FE891E00197F1F716
:1001600000C0000080E690E090936D0080936C00EA
:100170008EE00E94490086E00E944900089581E0D7
:100180000E9449000895E0916C00F0916D0020817B
:10019000318128333105A9F49B01215031092E31D9
:1001A000310518F58130910529F48FE7860F0E94FB
:1001B000490008950297C9F48FEB860F0E94490009
:1001C00008959B01215031092E31310570F48130A1
:1001D000910529F48FE7860F0E9449000895029740
:1001E00021F48FEB860F0E9449000895EF92FF9251
:1001F0000F931F93CF93DF93E62EF12C1E141F0451
:100200009CF4082F192FC0E0D0E0F80181918F01F4
:10021000882319F00E94770003C080E20E947700D3
:100220002196CE15DF058CF3DF91CF911F910F91B1
:10023000FF90EF900895EF92FF920F931F93CF934B
:10024000DF93EC0168EE73E00E9435027C0180E3ED
:10025000860F0E94770004E610E0C701B8010E94F3
:10026000350280E3860F0E947700CE01B8010E941C
:1002700035020AE010E0B8010E94350280E3860FE3
:100280000E947700CE01B8010E943502805D0E9475
:100290007700DF91CF911F910F91FF90EF9008951C
:1002A0008FEF84BB81BB81E08ABB0E94A5000E94C6
:1002B000BF000F2EF0EDCF2EF7E0DF2EE12CF12C5A
:1002C000F02D61E070E081E090E00E94C30069E001
:1002D00082E690E00E94F6006AE070E081E090E043
:1002E0000E94C300D89A25E32A95F1F70000D89818
:1002F000C99BFECF8EB582608EBD1DBC1CBCC9994A
:10030000FECF2CB53DB5A7E5B1E00E946802A7017C
:1003100096010E944902CA01B9010E94D1010E94BE
:100320009E01CB010E941B018FEF96E121E18150DC
:1003300090402040E1F700C00000C3CF04D0689493
:10034000B1118DC0089570D088F09F5790F0B92FEB
:100350009927B751A0F0D1F0660F771F881F991F1A
:100360001AF0BA95C9F712C0B13081F077D0B1E078
:10037000089574C0672F782F8827B85F39F0B93F88
:10038000CCF3869577956795B395D9F73EF490951C
:100390008095709561957F4F8F4F9F4F0895E8949A
:1003A00009C097FB3EF490958095709561957F4FBD
:1003B0008F4F9F4F9923A9F0F92F96E9BB2793956B
:1003C000F695879577956795B795F111F8CFFAF47B
:1003D000BB0F11F460FF1BC06F5F7F4F8F4F9F4FAC
:1003E00016C0882311F096E911C0772321F09EE80A
:1003F000872F762F05C0662371F096E8862F70E070
:1004000060E02AF09A95660F771F881FDAF7880F49
:100410009695879597F9089557FD9058440F551F65
:1004200059F05F3F71F04795880F97FB991F61F076
:100430009F3F79F087950895121613061406551FED
:10044000F2CF4695F1DF08C0161617061806991F59
:10045000F1CF86957105610508940895E894BB274E
:1004600066277727CB0197F9089597FB072E16F497
:10047000009407D077FD09D00E94770207FC05D0D1
:100480003EF4909581959F4F0895709561957F4FAB
:100490000895052E97FB1EF400940E94600257FDFC
:1004A00007D00E948B0207FC03D04EF40C9460022C
:1004B00050954095309521953F4F4F4F5F4F089590
:1004C00090958095709561957F4F8F4F9F4F0895C0
:1004D000A29FB001B39FC001A39F700D811D112485
:1004E000911DB29F700D811D1124911D0895AA1BAD
:1004F000BB1B51E107C0AA1FBB1FA617B70710F00F
:10050000A61BB70B881F991F5A95A9F78095909540
:10051000BC01CD010895A1E21A2EAA1BBB1BFD014F
:100520000DC0AA1FBB1FEE1FFF1FA217B307E407D2
:10053000F50720F0A21BB30BE40BF50B661F771F2A
:10054000881F991F1A9469F760957095809590950A
:0E0550009B01AC01BD01CF010895F894FFCFCF
:0C055E00380044495354414E43453D00D1
:00000001FF
