:100000000C942A000C9447000C9447000C94470071
:100010000C9447000C9447000C9447000C94470044
:100020000C9447000C9447000C9447000C94470034
:100030000C9447000C9447000C9447000C94470024
:100040000C9447000C9447000C9447000C94470014
:100050000C94470011241FBECFE5D4E0DEBFCDBF16
:1000600010E0A0E6B0E0E6E7F2E002C005900D92F5
:10007000A637B107D9F720E0A6E7B0E001C01D928E
:10008000AB37B207E1F70E9422010C9439010C94BE
:1000900000005D9BFECF8CB90895CF93DF93EC01F8
:1000A0008881882339F0219690E00E944900899147
:1000B0008111FACFDF91CF91089510BC83E389B904
:1000C00086E880BD88E98AB90895A99AA898AA9A6D
:1000D0009FEF9BBB1ABAEFE9FFE03197F1F700C041
:1000E000000089B3AA989ABB0895CF93C82F0E94A5
:1000F00065008823E4F3A898A998CBBBAA9AAA988C
:10010000CF910895CF93C82F0E9465008823E4F310
:10011000A998A89ACBBBAA9AAA98CF9108952FEF35
:1001200080E792E0215080409040E1F700C000005D
:100130008FEF8ABB84B3876084BBAA98A89880E3BA
:100140000E9475008CE00E94750086E00E94750098
:1001500080E380937600089580917600863319F4C9
:1001600080E30E94750082E00E94750080E3809326
:1001700076000895CF93DF93C82FD62F8091760015
:10018000863319F480E30E9475009FEF9C0F953031
:10019000D0F48FEF8D0F913049F028F0923049F074
:1001A000933051F00BC0D1588D2B08C0D1578D2BF7
:1001B00005C0D9578D2B02C0D9568D2B0E947500D2
:1001C00080E380937600DF91CF910895CF93C82F7D
:1001D00080917600863319F480E30E9475008C2F9D
:1001E0000E94820080E380937600CF910895CF93A0
:1001F000DF9380917600803301F586E30E947500DD
:100200001CC08D2F8F7180580E9475008D2F829594
:1002100086958770880F880F880F80580E94750018
:10022000C0E180E00E948200C150D9F7DF5FD03486
:1002300041F786E38093760002C0D0E0E2CFDF9101
:10024000CF9108950E945D008DE690E00E944D00E0
:100250000E948F000E94F7000E94AC0081E60E947D
:10026000E60063E083E00E94BA0082E60E94E600B6
:06027000FFCFF894FFCF60
:10027600256C69003078256C78002564004F4B4565
:060286002121210D0A00F8
:00000001FF
