S00F000047414D455041442E7372656326
S11300000C942A000C9447000C9447000C9447006D
S11300100C9447000C9447000C9447000C94470040
S11300200C9447000C9447000C9447000C94470030
S11300300C9447000C9447000C9447000C94470020
S11300400C9447000C9447000C9447000C94470010
S11300500C94470011241FBECFE5D4E0DEBFCDBF12
S113006012E0A0E6B0E0EAE1FCE002C005900D92E7
S1130070A43AB107D9F722E0A4EAB2E001C01D9284
S1130080A33BB207E1F70E9426030C940B060C94E1
S11300900000AC98892B11F0AE9A13C0AE9811C031
S11300A0662314F0AD9801C0AD9AAF98AF9A660F6D
S11300B001970097A9F795B380E4892785BBAC988D
S11300C0089588E090E0ECCFCF93DF93D82F615070
S11300D0C62FCC0FC60FCC0F6C2F6F7080E090E052
S11300E00E9449006C2F62956F706770606180E0B8
S11300F090E00E9449006FEF6D0F6F70606B80E0BD
S113010090E00E944900DF91CF910895FF920F93F0
S11301101F93CF93DF9311E00F2EF2E8FF2EF02D03
S113012000E061E0812F0E946400CF2DD02F60E0B9
S113013081E090E00E94490021972097C1F71F5F5A
S1130140193079F761E081E00E946400DF91CF917A
S11301501F910F91FF9008950F931F93CF93DF93F7
S11301609C012052310920363105C0F4C9018901AE
S1130170000F111F800F911F8C01000F111F005AD7
S11301801F4FC0E0D0E0F80161918F0181E090E061
S11301900E9449002196C630D105A9F7DF91CF917D
S11301A01F910F910895CF93DF93EC0188818823E9
S11301B039F0219690E00E94AC0089918111FACF28
S11301C0DF91CF9108958FEF84BB62EE80E090E0E1
S11301D00E9449002FEF81EE94E02150804090402E
S11301E0E1F700C000006FEA80E090E00E9449005F
S11301F06FE280E090E00E9449000E94860008952A
S11302000F931F93CF93DF93CDB7DEB72A970FB623
S1130210F894DEBF0FBECDBF9F938F9380EA92E028
S11302209F938F938E010F5F1F4F1F930F930E9415
S11302303A03C8010E94D3000F900F900F900F90C3
S11302400F900F902A960FB6F894DEBF0FBECDBF65
S1130250DF91CF911F910F910895CF93DF93EC011C
S11302609595879595958795959587959595879572
S11302708A3028F09927C7960E94AC0003C09927BA
S11302800E9400018C2F8F708A3028F090E0C7966E
S11302900E94AC0003C090E00E940001DF91CF9166
S11302A00895CF93C82F882331F080E290E00E9414
S11302B0AC00C150D1F7CF910895BC0125E02A9537
S11302C0F1F7000080E090E020E030E0E1E0F0E0D1
S11302D0AB01022E02C0559547950A94E2F740FF00
S11302E002C0969A01C09698949845E04A95F1F711
S11302F00000859B09C0AF01022E02C0440F551FA8
S11303000A94E2F7842B952B949A2F5F3F4F283061
S11303103105F1F6969A2AE62A95F1F700C0089578
S113032080ED81BB8FEF82BB8091A402833709F4F7
S1130330D0C0813409F4CDC0969A949A979881E0FC
S113034090E00E945D0183E490E00E945D0180E002
S113035090E00E945D0181E090E00E945D0180E0F8
S113036090E00E945D01969A8FE99FE00197F1F772
S113037000C00000979A8FE39CE90197F1F700C051
S11303800000969A949A979881E090E00E945D010B
S113039084E490E00E945D0180E090E00E945D01B1
S11303A081E090E00E945D0183E090E00E945D01A5
S11303B080E090E00E945D0180E090E00E945D0199
S11303C080E090E00E945D0180E090E00E945D0189
S11303D0969A8FE99FE00197F1F700C00000979A81
S11303E08FE39CE90197F1F700C00000969A949A74
S11303F0979881E090E00E945D0183E490E00E9480
S11304005D0180E090E00E945D0180E090E00E9448
S11304105D018AE590E00E945D018AE590E00E941A
S11304205D018AE590E00E945D018AE590E00E940A
S11304305D018AE590E00E945D01969A8FE99FE054
S11304400197F1F700C00000979A8FE39CE90197A8
S1130450F1F700C00000969A949A979881E090E092
S11304600E945D0182E490E00E945D018093A402F9
S113047080E090E00E945D0180E090E00E945D01D8
S113048080E090E00E945D0180E090E00E945D01C8
S113049080E090E00E945D0180E090E00E945D01B8
S11304A080E090E00E945D01969A8FE99FE00197B9
S11304B0F1F700C00000979A8FE39CE90197F1F7E8
S11304C000C000008091A402833719F0813409F040
S11304D033CF0895969A949A979881E090E00E9479
S11304E05D019093AF028093AE0282E490E00E949B
S11304F05D019093AC028093AB0280E090E00E9497
S11305005D019093A6028093A50280E090E00E9492
S11305105D019093A8028093A70280E090E00E947E
S11305205D019093AA028093A90280E090E00E946A
S11305305D0180588093B10280E090E00E945D01EB
S113054080588093B00280E090E00E945D01805862
S11305508093B20280E090E00E945D018058809315
S1130560AD0285E08A95F1F70000969A85E08A95B8
S1130570F1F70000979A6CE081E00E94640080919A
S1130580AE029091AF020E942D016CE082E00E94C5
S113059064008091AB029091AC020E942D016CE04A
S11305A083E00E9464008091A5029091A6020E94BB
S11305B02D0161E081E00E9464008091A702909186
S11305C0A8020E942D0161E082E00E9464008091F3
S11305D0A9029091AA020E942D0161E083E00E9489
S11305E064008091B202992787FD90950E940001D2
S11305F083E00E94510161E084E00E9464008091E4
S1130600AD02992787FD90950E94000183E00E9426
S1130610510161E085E00E9464008091B102992754
S113062087FD90950E94000183E00E94510161E0E2
S113063086E00E9464008091B002992787FD90951E
S11306400E94000183E00E94510108952FEF89E682
S113065098E1215080409040E1F700C000000E94E2
S1130660E30087E390E00E9400010E9490010E9451
S11306706A02FDCFAEE0B0E0E0E4F3E00C94E20502
S11306800D891E8986E08C831A8309838FEF9FE787
S11306909E838D83AE01475E5F4F6F89788DCE0157
S11306A001960E945C03EF81F885E00FF11F108230
S11306B02E96E4E00C94FE05ACE0B0E0E2E6F3E054
S11306C00C94D4057C016B018A01FC01178216820B
S11306D0838181FFBDC1CE0101964C01F701938155
S11306E0F60193FD859193FF81916F01882309F4AD
S11306F0ABC1853239F493FD859193FF81916F01EC
S1130700853229F4B70190E00E944405E7CF512CCB
S1130710312C20E02032A0F48B3269F030F48032A6
S113072059F0833269F420612CC08D3239F0803362
S113073039F4216026C02260246023C0286021C0CF
S113074027FD27C030ED380F3A3078F426FF06C075
S1130750FAE05F9E300D1124532E13C08AE0389EB8
S1130760300D1124332E20620CC08E3221F426FD6C
S11307706BC1206406C08C3611F4206802C0883630
S113078041F4F60193FD859193FF81916F018111ED
S1130790C1CF982F9F7D9554933028F40C5F1F4F41
S11307A0FFE3F9830DC0833631F0833771F083356D
S11307B009F05BC022C0F801808189830E5F1F4F5E
S11307C044244394512C540115C03801F2E06F0EB7
S11307D0711CF801A080B18026FF03C0652D70E074
S11307E002C06FEF7FEFC5012C870E9439052C01F1
S11307F083012C852F77222E17C03801F2E06F0E6B
S1130800711CF801A080B18026FF03C0652D70E043
S113081002C06FEF7FEFC5012C870E942E052C01CB
S11308202C852068222E830123FC1BC0832D90E09D
S113083048165906B0F4B70180E290E00E944405DE
S11308403A94F4CFF50127FC859127FE81915F014D
S1130850B70190E00E94440531103A94F1E04F1A38
S113086051084114510471F7E5C0843611F08936FA
S113087039F5F80127FF07C0608171818281938176
S11308800C5F1F4F08C060817181882777FD8095B8
S1130890982F0E5F1F4F2F76B22E97FF09C09095A9
S11308A08095709561957F4F8F4F9F4F2068B22E32
S11308B02AE030E0A4010E947605A82EA81844C0BE
S11308C0853729F42F7EB22E2AE030E025C0F22F9E
S11308D0F97FBF2E8F36C1F018F4883579F0B4C093
S11308E0803719F0883721F0AFC02F2F2061B22E46
S11308F0B4FE0DC08B2D8460B82E09C024FF0AC03D
S11309009F2F9660B92E06C028E030E005C020E194
S113091030E002C020E132E0F801B7FE07C0608198
S11309207181828193810C5F1F4F06C06081718148
S113093080E090E00E5F1F4FA4010E947605A82E70
S1130940A818FB2DFF77BF2EB6FE0BC02B2D2E7FD4
S1130950A51450F4B4FE0AC0B2FC08C02B2D2E7EA0
S113096005C07A2C2B2D03C07A2C01C0752C24FFD2
S11309700DC0FE01EA0DF11D8081803311F4297E42
S113098009C022FF06C07394739404C0822F867832
S113099009F0739423FD13C020FF06C05A2C73146E
S11309A018F4530C5718732C731468F4B70180E2CD
S11309B090E02C870E94440573942C85F5CF731422
S11309C010F4371801C0312C24FF12C0B70180E3A2
S11309D090E02C870E9444052C8522FF17C021FF3C
S11309E003C088E590E002C088E790E0B7010CC03E
S11309F0822F867859F021FD02C080E201C08BE28B
S1130A0027FD8DE2B70190E00E944405A51438F457
S1130A10B70180E390E00E9444055A94F7CFAA946A
S1130A20F401EA0DF11D8081B70190E00E944405B4
S1130A30A110F5CF332009F451CEB70180E290E044
S1130A400E9444053A94F6CFF7018681978102C04B
S1130A508FEF9FEF2C96E2E10C94F005FC010590DA
S1130A60615070400110D8F7809590958E0F9F1FAC
S1130A700895FC016150704001900110D8F78095F1
S1130A8090958E0F9F1F08950F931F93CF93DF931D
S1130A90182F092FEB018B8181FD03C08FEF9FEF8E
S1130AA020C082FF10C04E815F812C813D8142179E
S1130AB053077CF4E881F9819F012F5F3F4F39830D
S1130AC02883108306C0E885F985812F0995892B31
S1130AD029F72E813F812F5F3F4F3F832E83812F44
S1130AE0902FDF91CF911F910F910895FA01AA27BA
S1130AF0283051F1203181F1E8946F936E7F6E5F5D
S1130B007F4F8F4F9F4FAF4FB1E03ED0B4E03CD00A
S1130B10670F781F891F9A1FA11D680F791F8A1FED
S1130B20911DA11D6A0F711D811D911DA11D20D054
S1130B3009F468943F912AE0269F11243019305D0E
S1130B403193DEF6CF010895462F4770405D4193FF
S1130B50B3E00FD0C9F7F6CF462F4F70405D4A334C
S1130B6018F0495D31FD4052419302D0A9F7EACF14
S1130B70B4E0A6959795879577956795BA95C9F743
S1130B8000976105710508959B01AC010A2E069436
S1130B905795479537952795BA95C9F7620F731FEF
S1130BA0841F951FA01D08952F923F924F925F922C
S1130BB06F927F928F929F92AF92BF92CF92DF9269
S1130BC0EF92FF920F931F93CF93DF93CDB7DEB7CE
S1130BD0CA1BDB0B0FB6F894DEBF0FBECDBF099462
S1130BE02A88398848885F846E847D848C849B84B9
S1130BF0AA84B984C884DF80EE80FD800C811B81C7
S1130C00AA81B981CE0FD11D0FB6F894DEBF0FBEF5
S10D0C10CDBFED010895F894FFCF65
S1130C1A0000000000000000005F00000000070060
S1130C2A070000147F147F1400242A7F2A12002349
S1130C3A1308646200364955225000000503000077
S1130C4A00001C224100000041221C000014083E3E
S1130C5A08140008083E0808000050300000000884
S1130C6A0808080800006060000000201008040258
S1130C7A003E5149453E0000427F40000042615116
S1130C8A4946002141454B31001814127F100027B0
S1130C9A45454539003C4A49493000017109050373
S1130CAA00364949493600064949291E00003636A4
S1130CBA0000000056360000000814224100001407
S1130CCA14141414000041221408000201510906E4
S1130CDA00324979413E007E1111117E007F494953
S1130CEA4936003E41414122007F4141221C007F96
S1130CFA49494941007F09090901003E4149497AA4
S1130D0A007F0808087F0000417F4100002040411D
S1130D1A3F01007F08142241007F40404040007F89
S1130D2A020C027F007F0408107F003E4141413ECD
S1130D3A007F09090906003E4151215E007F091915
S1130D4A29460046494949310001017F0101003F12
S1130D5A4040403F001F2040201F003F4038403F92
S1130D6A00631408146300070870080700615149F6
S1130D7A454300007F41410000020408102000009E
S1130D8A41417F0000040201020400404040404007
S1130D9A000001020400002054545478007F48449F
S1130DAA443800384444442000384444487F0038D6
S1130DBA5454541800087E090102000C5252523E3F
S1130DCA007F080404780000447D40000020404469
S1130DDA3D00007F102844000000417F4000007C51
S1130DEA04180478007C080404780038444444381D
S1130DFA007C1414140800081414187C007C0804D9
S1130E0A040800485454542000043F444020003C41
S1130E1A4040207C001C2040201C003C4030403CC8
S1130E2A004428102844000C5050503C0044645498
S1130E3A4C440000083641000000007F0000000016
S1130E4A4136080000100808100800784641467820
S1070E5A2569000002
S9030000FC
