S01B00005553425F4B45595F424F4152445F4D454741382E737265635F
S1130000A7C0C1C0C0C0BFC0BEC0BDC0BCC0BBC013
S1130010BAC0B9C0B8C0B7C0B6C0B5C0B4C0B3C028
S1130020B2C0B1C0B0C0C6C312C411C410C40FC49E
S11300300EC40DC40CC40BC40AC409C408C407C448
S113004006C405C404C403C402C401C400C4FFC379
S1130050FEC3B6C3FCC3FBC3FAC3F9C3F8C3F7C3F7
S1130060F6C3F5C3F4C3F3C3C4C3D7C3AFC3E2C376
S1130070EEC3EDC3ECC3EBC3EAC3E9C3E8C3E7C310
S1130080E6C3E5C3E4C3C2C3BBC3CDC3ACC3D8C3D7
S1130090DEC3DDC3DCC3DBC3DAC3D9C3D8C3D7C370
S11300A0D6C3D5C3D4C3D3C3D2C3D1C3D0C3CFC3A0
S11300B0CEC3CDC3CCC3CBC3CAC3C9C3C8C3C7C3D0
S11300C0C6C3C5C3C4C3C3C3C2C3C1C3C0C3BFC300
S11300D083C30902220001010080320904000001E7
S11300E0030000000921010100012223000705810A
S11300F00308000A1201010100000008424231E134
S113010000010102000110034800490044004B00B3
S113011065007900730012036F00620064006500DB
S113012076002E0061007400040309040501090629
S1130130A101050719E029E71500250175019508B6
S11301408102950175082565190029658100C000A3
S113015011241FBECFE5D4E0DEBFCDBF10E0A0E682
S1130160B0E0E0EDF9E002C005900D92A237B107CE
S1130170D9F720E0A2E7B0E001C01D92A03BB2078E
S1130180E1F795D323C43CCFCF93CFB7CF93809BD4
S1130190FECF809B09C0809B07C0809B05C0809BCD
S11301A003C0809B01C09EC0DF93C0919300DD27F4
S11301B0C656DF4F809B02C0DF91EBCF2F930F9386
S11301C01F9300B32FEF00FB20F94F933F9310B31D
S11301D04FEF012700FB21F93BE031C04E7F012F97
S11301E010B3216028C0102F4D7F2260000000B39F
S11301F029C04B7F2460012F000010B32BC010B323
S1130200477F28602AC04F7E00B320612CC04F7DF9
S113021010B320622FC04F7B00B3206432C042274A
S113022000B349934FEF0000102710FB20F910B3DF
S11302301570A9F1297F91F2012700FB21F900B380
S1130240237F89F23150F0F1102710FB22F910B30B
S1130250277E79F2012700FB23F92F7C81F200B37A
S1130260102710FB24F92F7971F200C010B3012775
S113027000FB25F92F7359F200C000B3102710FBBF
S113028026F9223040F200C010B3012700FB27F901
S1130290243028F64F77206810B30000F9CF3B5084
S11302A03195333010E41ABFB8F0C31BD040088135
S11302B0033C41F10B3431F11981412F1F77209117
S11302C09100121731F4093691F10D3279F0013EA3
S11302D069F02227209398003F914F911F910F912D
S11302E02F91DF91CF91CFBFCF91189500939800B4
S11302F03F914F911F910F912F91DF91CAB7C6FD86
S113030046CFF0CF00919800002331F3109196006E
S11303101123A1F53430A2F130939600009392009A
S1130320109193003BE0311B3093930029C000915E
S1130330960001301CF50AE547FD09C030916100C3
S113034034FD20C000936100CBE7D0E01FC03091A2
S1130350600034FD17C000936000C6E8D0E016C00A
S1130360052710E002BB1FC0052722C0052727C0B0
S113037005272CC0052710E002BB33C04AE503C0A3
S113038042ED01C0432FC4E1D0E032E011B3156067
S1130390909A02B311BB5F9355E020E820FF052734
S11303A002BB279517951C3FD8F620FF05272795F4
S11303B002BB17951C3FC0F620FF0527279517950C
S11303C002BB1C3F98F620FF0527279517951C3F75
S11303D002BB70F600C0499120FF052702BB279598
S11303E017951C3F38F620FF0527279502BB179564
S11303F01C3F38F520FF05272795179502BB1C3FA6
S113040010F520FF0527279517951C3F02BBE8F43C
S1130410242F3A9519F60A7F5F9102BB00C0109110
S11304209700C651D04011F01093910010E41ABF08
S1130430016011B31A7F402F4A7F02BB11BB42BB3C
S11304404BCF0527D3CF0527D8CF0527DDCFA82F3E
S1130450B92F8FEF9FEF41E050EA615070F02D917A
S113046038E0722F782796958795269570FF02C0FD
S1130470842795273A95A9F7F0CF8095909508950C
S1130480E6DF8D939D930895CF93C62F209160004E
S113049024FF0BC0E6E8F0E0308128E8232720831E
S11304A02FEF2C0FC11105C00CC02AE5209360006A
S11304B0F7CFE82FF92FA7E8B0E081918D93215071
S11304C0E0F76C2F87E890E0DBDFCC5FC09360003F
S11304D0CF910895CF93DF938091960018160CF076
S11304E0C9C020919300909192009D3209F0B7C049
S11304F09AE5909361008B3009F0B4C0CCE0D0E071
S1130500C21BD109C656DF4F8881807609F093C09B
S113051010928400898181110BC01092850084E8B7
S113052090E0909395008093940090E882E08FC0CF
S1130530853031F48A818093970090E880E087C009
S1130540863009F052C08B81813049F484EF90E009
S1130550909395008093940090EC82E178C082306F
S113056049F482ED90E0909395008093940090EC90
S113057082E26DC0833019F58A81811109C088E255
S113058091E0909395008093940090EC84E05FC098
S1130590813049F486E191E0909395008093940032
S11305A090EC82E154C0823009F049C086E091E0C9
S11305B0909395008093940090EC80E148C0813240
S11305C049F484EE90E0909395008093940090EC2D
S11305D089E03DC08232B1F58CE291E090939500C0
S11305E08093940090EC83E232C0883049F489E926
S11305F090E0909395008093940090E881E027C068
S1130600893031F48A818093990090E880E01FC09A
S11306108A3049F484E890E09093950080939400A4
S113062090E881E014C08B3081F483EC80938600E1
S113063090E880E00CC0CE010FD190E808C090ECA7
S113064080E005C090EC80E002C090E880E02F815B
S113065021110AC02E81281738F4822F05C090E892
S113066080E002C090E880E0909372008093620082
S1130670109296008091610084FF5BC080916200BB
S11306808F3F09F456C0C82F893008F0C8E08C1B8E
S1130690809362002091720020FD02C0DBE401C05F
S11306A0D3EC2F5F20937200809194009091950079
S11306B026FD05C02FEF2C0FC11114C024C02FEF4D
S11306C02C0FCC2301F1ACE7B0E0322FFC014491B4
S11306D04D9331963150D8F730E02F5F3F4F820F62
S11306E0931F0DC0DC01ECE7F0E0322F4D914193F4
S11306F03150E0F730E02F5F3F4F820F931F90930C
S11307009500809394006C2F8CE790E0B9DE84E030
S11307108C0FC83018F49FEF90936200D0937B0045
S11307208093610006C090B3957061F48150D9F74D
S113073005C080B3857031F489E0F5CF109297003D
S113074010929100DF91CF91089585B7836085BFA2
S11307508BB780648BBF83EC80938600089580936D
S1130760750090ED980F9A3030F41092770089500C
S11307708093780008959FE9980F9A3130F410928D
S113078077008D558093780008959FEB980F9A31E8
S113079038F492E0909377008D5380937800089515
S11307A090E0FC013A97E635F10508F050C0ED5EA3
S11307B0FF4F09941092770088E28093780008959F
S11307C0109277008CE2809378000895109277005D
S11307D08DE280937800089582E0809377008DE223
S11307E0809378000895109277008EE280937800C9
S11307F0089582E0809377008EE2809378000895D4
S11308001092770083E380937800089582E08093C8
S1130810770083E38093780008951092770086E34D
S113082080937800089582E08093770086E3809334
S1130830780008951092770087E3809378000895F4
S113084082E08093770087E3809378000895109284
S1130850770010927800089527E730E030939500F0
S113086020939400FC01208120762032E1F4218140
S1130870213039F482B3805882BB80E070DF82E09B
S11308800895223041F486E790E090939500809398
S1130890940081E008952A3041F4FC01838180931F
S11308A0760080E0089580E0089580E008952FE0C8
S11308B088E190E00FB6F894A895809341000FBEAC
S11308C0209341008FEF88BB17BA85BB14BA8AE125
S11308D082BB87EE81BB9FEF2FEF04C08150F1F7FD
S11308E0915011F0822FFACF81B38A7F81BB85E0CA
S11308F083BF2BDF789410E0C1E00F2EF7E0FF2ECA
S1130900F02D6894CC24C5F80F2EF3E68F2EF0E07A
S11309109F2EF02DEE24E3946894BB24B6F8A8959A
S1130920D9DD83B38695869586958F2590917A0037
S113093098279093790080937A0090FF0CC080FFF1
S11309400AC082B38C2582BBC11105C09092740089
S113095080927300CE2D08B600FE0DC0E8BE8091D3
S11309607600882341F0153010F0155004C092B37E
S11309709B2592BB182FCC2391F28091600084FFB9
S1130980CECFC0917300D0917400209799F08881E4
S1130990882381F090917500891304C080E0DFDE24
S11309A0CE2D0FC0DCDE2196D0937400C09373006B
S11309B0CE2D07C080E0D3DE109274001092730035
S11309C0C0E062E087E790E05FDDA9CFF894FFCF55
S11309D05A5AFF48656C6C6F2C20776F726C6421D7
S10509E00A0007
S9030000FC
