S00B00004144432E7372656351
S11300000C942A000C943F000C943F000C943F0085
S11300100C943F000C943F000C943F000C943F0060
S11300200C943F000C943F000C943F000C943F0050
S11300300C943F000C943F000C943F000C943F0040
S11300400C943F000C943F000C943F000C943F0030
S11300500C943F0011241FBECFE5D4E0DEBFCDBF1A
S113006010E0A0E6B0E0E2EDFAE002C005900D92E7
S1130070A836B107D9F70E94D0000C9467050C94F8
S113008000005D9BFECF8CB90895CF93DF93EC0104
S11300908881882339F0219690E00E94410089915B
S11300A08111FACFDF91CF9108950F931F93CF93CE
S11300B0DF93CDB7DEB72A970FB6F894DEBF0FBE35
S11300C0CDBF9F938F9380E690E09F938F938E0193
S11300D00F5F1F4F1F930F930E949602C8010E9447
S11300E045000F900F900F900F900F900F902A964D
S11300F00FB6F894DEBF0FBECDBFDF91CF911F9135
S11301000F91089510BC83E389B986E880BD88E91E
S11301108AB90895009731F4389839983A983B98F9
S11301203C9808958130910531F4389A39983A9879
S11301303B983C9808958230910531F43898399A67
S11301403A983B983C9808958330910531F4389A55
S1130150399A3A983B983C9808958430910531F443
S1130160389839983A9A3B983C9808958530910587
S113017031F4389A39983A9A3B983C9808958630E5
S1130180910531F43898399A3A9A3B983C980895F5
S1130190079729F4389A399A3A9A3B983C980895E3
S11301A08FEF84BB81BB0E9482003E9A329A379AB9
S11301B082E090E00E948A00369A349BFECFC4B15C
S11301C0D5B1CE010E94550083E690E00E9445001F
S11301D0BE0180E090E00E94A50120E030E44CE9FB
S11301E055E40E94330220E030EC4FE754E40E94CF
S11301F00C010E947401CB010E9455002FEF81EE87
S113020094E0215080409040E1F700C0000085E672
S113021090E00E944500CCCF0CD0EBC0E3D040F07E
S1130220DAD030F021F45F3F19F0CCC0511115C180
S1130230CFC0F0D098F39923C9F35523B1F3951B9C
S1130240550BBB27AA2762177307840738F09F5FF3
S11302505F4F220F331F441FAA1FA9F333D00E2E62
S11302603AF0E0E830D091505040E695001CCAF7CF
S113027029D0FE2F27D0660F771F881FBB1F261794
S113028037074807AB07B0E809F0BB0B802DBF0167
S1130290FF2793585F4F2AF09E3F510568F092C0A4
S11302A0DCC05F3FECF3983EDCF386957795679569
S11302B0B795F7959F5FC9F7880F911D9695879518
S11302C097F90895E1E0660F771F881FBB1F621737
S11302D073078407BA0720F0621B730B840BBA0BF5
S11302E0EE1F88F7E095089504D06894B111B5C065
S11302F0089598D088F09F5790F0B92F9927B75157
S1130300A0F0D1F0660F771F881F991F1AF0BA95D5
S1130310C9F712C0B13081F09FD0B1E008959CC0FC
S1130320672F782F8827B85F39F0B93FCCF38695CB
S113033077956795B395D9F73EF490958095709528
S113034061957F4F8F4F9F4F0895E89409C097FBA5
S11303503EF490958095709561957F4F8F4F9F4F98
S11303609923A9F0F92F96E9BB279395F6958795DC
S113037077956795B795F111F8CFFAF4BB0F11F49F
S113038060FF1BC06F5F7F4F8F4F9F4F16C0882346
S113039011F096E911C0772321F09EE8872F762F7C
S11303A005C0662371F096E8862F70E060E02AF0BD
S11303B09A95660F771F881FDAF7880F96958795A9
S11303C097F9089597F99F6780E870E060E00895D1
S11303D09FEF80EC089500240A9416161706180659
S11303E00906089500240A94121613061406050635
S11303F00895092E0394000C11F4882352F0BB0FC6
S113040040F4BF2B11F460FF04C06F5F7F4F8F4F28
S11304109F4F089557FD9058440F551F59F05F3F63
S113042071F04795880F97FB991F61F09F3F79F012
S113043087950895121613061406551FF2CF469594
S1130440F1DF08C0161617061806991FF1CF869516
S11304507105610508940895E894BB2766277727FA
S1130460CB0197F908950BD0C4CFB5DF28F0BADFDC
S113047018F0952309F0A6CFABCF1124EECFCADF35
S1130480A0F3959FD1F3950F50E0551F629FF001A3
S1130490729FBB27F00DB11D639FAA27F00DB11DFC
S11304A0AA1F649F6627B00DA11D661F829F222785
S11304B0B00DA11D621F739FB00DA11D621F839F0C
S11304C0A00D611D221F749F3327A00D611D231FE2
S11304D0849F600D211D822F762F6A2F11249F5730
S11304E050408AF0E1F088234AF0EE0FFF1FBB1F53
S11304F0661F771F881F91505040A9F79E3F5105F2
S113050070F060CFAACF5F3FECF3983EDCF38695A2
S113051077956795B795F795E7959F5FC1F7FE2B9C
S1130520880F911D9695879597F90895AEE0B0E0F0
S1130530ECE9F2E00C943E050D891E8986E08C837B
S11305401A8309838FEF9FE79E838D83AE01475EF5
S11305505F4F6F89788DCE0101960E94B802EF81BA
S1130560F885E00FF11F10822E96E4E00C945A05F2
S1130570ACE0B0E0EEEBF2E00C9430057C016B01F2
S11305808A01FC0117821682838181FFBDC1CE01DD
S113059001964C01F7019381F60193FD859193FF38
S11305A081916F01882309F4ABC1853239F493FD3D
S11305B0859193FF81916F01853229F4B70190E011
S11305C00E94A004E7CF512C312C20E02032A0F46B
S11305D08B3269F030F4803259F0833269F420614F
S11305E02CC08D3239F0803339F4216026C022606A
S11305F0246023C0286021C027FD27C030ED380FB8
S11306003A3078F426FF06C0FAE05F9E300D1124DC
S1130610532E13C08AE0389E300D1124332E2062ED
S11306200CC08E3221F426FD6BC1206406C08C36CA
S113063011F4206802C0883641F4F60193FD8591D7
S113064093FF81916F018111C1CF982F9F7D9554A4
S1130650933028F40C5F1F4FFFE3F9830DC08336FA
S113066031F0833771F0833509F05BC022C0F801A3
S1130670808189830E5F1F4F44244394512C54017D
S113068015C03801F2E06F0E711CF801A080B18032
S113069026FF03C0652D70E002C06FEF7FEFC50138
S11306A02C870E9495042C0183012C852F77222E00
S11306B017C03801F2E06F0E711CF801A080B18000
S11306C026FF03C0652D70E002C06FEF7FEFC50108
S11306D02C870E948A042C012C852068222E8301F9
S11306E023FC1BC0832D90E048165906B0F4B701D3
S11306F080E290E00E94A0043A94F4CFF50127FC34
S1130700859127FE81915F01B70190E00E94A004CA
S113071031103A94F1E04F1A51084114510471F721
S1130720E5C0843611F0893639F5F80127FF07C092
S113073060817181828193810C5F1F4F08C0608149
S11307407181882777FD8095982F0E5F1F4F2F7634
S1130750B22E97FF09C090958095709561957F4F53
S11307608F4F9F4F2068B22E2AE030E0A4010E94F0
S1130770D204A82EA81844C0853729F42F7EB22E9F
S11307802AE030E025C0F22FF97FBF2E8F36C1F06A
S113079018F4883579F0B4C0803719F0883721F01F
S11307A0AFC02F2F2061B22EB4FE0DC08B2D8460FC
S11307B0B82E09C024FF0AC09F2F9660B92E06C028
S11307C028E030E005C020E130E002C020E132E062
S11307D0F801B7FE07C060817181828193810C5F4B
S11307E01F4F06C06081718180E090E00E5F1F4F53
S11307F0A4010E94D204A82EA818FB2DFF77BF2EB7
S1130800B6FE0BC02B2D2E7FA51450F4B4FE0AC0E7
S1130810B2FC08C02B2D2E7E05C07A2C2B2D03C0D4
S11308207A2C01C0752C24FF0DC0FE01EA0DF11DC8
S11308308081803311F4297E09C022FF06C073949D
S1130840739404C0822F867809F0739423FD13C037
S113085020FF06C05A2C731418F4530C5718732C29
S1130860731468F4B70180E290E02C870E94A0041E
S113087073942C85F5CF731410F4371801C0312C00
S113088024FF12C0B70180E390E02C870E94A004EB
S11308902C8522FF17C021FF03C088E590E002C029
S11308A088E790E0B7010CC0822F867859F021FDCB
S11308B002C080E201C08BE227FD8DE2B70190E027
S11308C00E94A004A51438F4B70180E390E00E94CC
S11308D0A0045A94F7CFAA94F401EA0DF11D808183
S11308E0B70190E00E94A004A110F5CF332009F4D1
S11308F051CEB70180E290E00E94A0043A94F6CF72
S1130900F7018681978102C08FEF9FEF2C96E2E179
S11309100C944C05FC010590615070400110D8F70F
S1130920809590958E0F9F1F0895FC016150704033
S113093001900110D8F7809590958E0F9F1F089510
S11309400F931F93CF93DF93182F092FEB018B8104
S113095081FD03C08FEF9FEF20C082FF10C04E8146
S11309605F812C813D81421753077CF4E881F98132
S11309709F012F5F3F4F39832883108306C0E8858A
S1130980F985812F0995892B29F72E813F812F5FC6
S11309903F4F3F832E83812F902FDF91CF911F9163
S11309A00F910895FA01AA27283051F1203181F1DD
S11309B0E8946F936E7F6E5F7F4F8F4F9F4FAF4F63
S11309C0B1E03ED0B4E03CD0670F781F891F9A1F76
S11309D0A11D680F791F8A1F911DA11D6A0F711D2A
S11309E0811D911DA11D20D009F468943F912AE036
S11309F0269F11243019305D3193DEF6CF0108951E
S1130A00462F4770405D4193B3E00FD0C9F7F6CF4E
S1130A10462F4F70405D4A3318F0495D31FD405216
S1130A20419302D0A9F7EACFB4E0A69597958795AC
S1130A3077956795BA95C9F700976105710508958B
S1130A409B01AC010A2E0694579547953795279537
S1130A50BA95C9F7620F731F841F951FA01D0895CF
S1130A602F923F924F925F926F927F928F929F92BA
S1130A70AF92BF92CF92DF92EF92FF920F931F93A8
S1130A80CF93DF93CDB7DEB7CA1BDB0B0FB6F89459
S1130A90DEBF0FBECDBF09942A88398848885F8499
S1130AA06E847D848C849B84AA84B984C884DF800A
S1130AB0EE80FD800C811B81AA81B981CE0FD11DEE
S1130AC00FB6F894DEBF0FBECDBFED010895F894C4
S1050AD0FFCF52
S10B0AD225690009000D000074
S9030000FC
