S010000054657374554152542E7372656338
S11300000C944A010C9467010C9467010C946701E9
S11300100C9467010C9467010C9467010C946701BC
S11300200C9467010C9467010C9467010C9485028D
S11300300C9467010C9467010C9467010C9467019C
S11300400C9467010C9467010C9467010C9467018C
S11300500C9467010000000000000000005F000035
S113006000000700070000147F147F1400242A7F77
S11300702A120023130864620036495522500000F6
S11300800503000000001C224100000041221C0066
S11300900014083E08140008083E08080000503008
S11300A00000000808080808000060600000002044
S11300B010080402003E5149453E0000427F4000C2
S11300C0004261514946002141454B310018141248
S11300D07F10002745454539003C4A494930000115
S11300E07109050300364949493600064949291E64
S11300F000003636000000005636000000081422C6
S113010041000014141414140000412214080002C5
S11301100151090600324979413E007E1111117ED8
S1130120007F49494936003E41414122007F414117
S1130130221C007F49494941007F09090901003E09
S11301404149497A007F0808087F0000417F410047
S1130150002040413F01007F08142241007F4040BD
S11301604040007F020C027F007F0408107F003EA5
S11301704141413E007F09090906003E4151215E8B
S1130180007F091929460046494949310001017F88
S11301900101003F4040403F001F2040201F003F1E
S11301A04038403F006314081463000708700807D0
S11301B000615149454300007F41410000020408A9
S11301C01020000041417F000004020102040040AD
S11301D04040404000000102040000205454547880
S11301E0007F4844443800384444442000384444A0
S11301F0487F00385454541800087E090102000C4A
S11302005252523E007F080404780000447D4000AE
S1130210002040443D00007F102844000000417F3E
S11302204000007C04180478007C0804047800383A
S113023044444438007C1414140800081414187C32
S1130240007C0804040800485454542000043F442B
S11302504020003C4040207C001C2040201C003CEE
S11302604030403C004428102844000C5050503C7E
S1130270004464544C440000083641000000007FF0
S1130280000000004136080000100808100800783B
S11302904641467811241FBECFE5D4E0DEBFCDBF72
S11302A010E0A0E6B0E0E8EDFAE002C005900D929F
S11302B0AA36B107D9F720E0AAE6B0E001C01D9242
S11302C0AC36B207E1F70E945B020C946A050C9409
S11302D000005D9BFECF8CB9089510BC87E689B9F8
S11302E086E880BD88E98AB908959498892B11F02D
S11302F0969A13C0969811C0662314F0959801C07D
S1130300959A9798979A660F01970097A9F792B3D1
S113031080E4892782BB9498089588E090E0ECCF2C
S1130320CF93DF93D82F6150C62FCC0FC60FCC0FBD
S11303306C2F6F7080E090E00E9475016C2F6295C5
S11303406F706770606180E090E00E9475016FEFEC
S11303506D0F6F70606B80E090E00E947501DF911B
S1130360CF9108950F931F93CF93DF939C01205255
S1130370310920363105C0F4C9018901000F111F6C
S1130380800F911F8C01000F111FE801CC5ADF4F21
S1130390065A1F4FFE01649181E090E00E947501AE
S11303A02196C017D107B1F7DF91CF911F910F911B
S11303B00895CF93DF93EC018881882339F0219647
S11303C090E00E94B20189918111FACFDF91CF911F
S11303D00895FF920F931F93CF93DF9311E00F2E95
S11303E0F2E8FF2EF02D00E061E0812F0E949001E1
S11303F0CF2DD02F60E081E090E00E94750121971D
S11304002097C1F71F5F193079F761E081E00E94FE
S11304109001DF91CF911F910F91FF90089581B3C7
S1130420806F81BB62EE80E090E00E9475012FEF47
S113043081EE94E0215080409040E1F700C000003C
S11304406FEA80E090E00E9475016FE280E090E046
S11304500E9475010E94E90108950F931F93CF93A1
S1130460DF93CDB7DEB72A970FB6F894DEBF0FBE81
S1130470CDBF9F938F937F936F9380E690E09F937C
S11304808F938E010F5F1F4F1F930F930E9499024A
S1130490C8010E94D9010FB6F894DEBF0FBECDBFCC
S11304A02A960FB6F894DEBF0FBECDBFDF91CF9171
S11304B01F910F9108950E940F020E946D0161E047
S11304C081E00E94900161E070E080E090E00E9491
S11304D02D0278948BE790E00E9469012FEF85EA62
S11304E09EE0215080409040E1F700C0000083E787
S11304F090E00E9469012FEF85EA9EE02150804040
S11305009040E1F700C00000E5CF1F920F920FB6B4
S11305100F9211248F939F938CB190E090936B0072
S113052080936A009F918F910F900FBE0F901F9040
S11305301895AEE0B0E0EFE9F2E00C9441050D89C6
S11305401E8986E08C831A8309838FEF9FE79E833D
S11305508D83AE01475E5F4F6F89788DCE01019622
S11305600E94BB02EF81F885E00FF11F10822E96E6
S1130570E4E00C945D05ACE0B0E0E1ECF2E00C9456
S113058033057C016B018A01FC0117821682838189
S113059081FFBDC1CE0101964C01F7019381F601A3
S11305A093FD859193FF81916F01882309F4ABC179
S11305B0853239F493FD859193FF81916F018532E2
S11305C029F4B70190E00E94A304E7CF512C312C09
S11305D020E02032A0F48B3269F030F4803259F0FC
S11305E0833269F420612CC08D3239F0803339F4C0
S11305F0216026C02260246023C0286021C027FD1A
S113060027C030ED380F3A3078F426FF06C0FAE000
S11306105F9E300D1124532E13C08AE0389E300D96
S11306201124332E20620CC08E3221F426FD6BC1BE
S1130630206406C08C3611F4206802C0883641F468
S1130640F60193FD859193FF81916F018111C1CFD3
S1130650982F9F7D9554933028F40C5F1F4FFFE330
S1130660F9830DC0833631F0833771F0833509F097
S11306705BC022C0F801808189830E5F1F4F442430
S11306804394512C540115C03801F2E06F0E711CD3
S1130690F801A080B18026FF03C0652D70E002C080
S11306A06FEF7FEFC5012C870E9498042C01830112
S11306B02C852F77222E17C03801F2E06F0E711CA3
S11306C0F801A080B18026FF03C0652D70E002C050
S11306D06FEF7FEFC5012C870E948D042C012C85C0
S11306E02068222E830123FC1BC0832D90E0481632
S11306F05906B0F4B70180E290E00E94A3043A9452
S1130700F4CFF50127FC859127FE81915F01B701A4
S113071090E00E94A30431103A94F1E04F1A51087A
S11307204114510471F7E5C0843611F0893639F566
S1130730F80127FF07C060817181828193810C5F7A
S11307401F4F08C060817181882777FD8095982F9D
S11307500E5F1F4F2F76B22E97FF09C0909580959C
S1130760709561957F4F8F4F9F4F2068B22E2AE07E
S113077030E0A4010E94D504A82EA81844C08537EF
S113078029F42F7EB22E2AE030E025C0F22FF97F23
S1130790BF2E8F36C1F018F4883579F0B4C0803795
S11307A019F0883721F0AFC02F2F2061B22EB4FE8C
S11307B00DC08B2D8460B82E09C024FF0AC09F2F62
S11307C09660B92E06C028E030E005C020E130E094
S11307D002C020E132E0F801B7FE07C060817181F8
S11307E0828193810C5F1F4F06C06081718180E01C
S11307F090E00E5F1F4FA4010E94D504A82EA818F4
S1130800FB2DFF77BF2EB6FE0BC02B2D2E7FA5141C
S113081050F4B4FE0AC0B2FC08C02B2D2E7E05C0D5
S11308207A2C2B2D03C07A2C01C0752C24FF0DC00B
S1130830FE01EA0DF11D8081803311F4297E09C087
S113084022FF06C07394739404C0822F867809F043
S1130850739423FD13C020FF06C05A2C731418F49C
S1130860530C5718732C731468F4B70180E290E0AA
S11308702C870E94A30473942C85F5CF731410F471
S1130880371801C0312C24FF12C0B70180E390E077
S11308902C870E94A3042C8522FF17C021FF03C0CC
S11308A088E590E002C088E790E0B7010CC0822F91
S11308B0867859F021FD02C080E201C08BE227FD59
S11308C08DE2B70190E00E94A304A51438F4B701A7
S11308D080E390E00E94A3045A94F7CFAA94F40111
S11308E0EA0DF11D8081B70190E00E94A304A110DC
S11308F0F5CF332009F451CEB70180E290E00E9495
S1130900A3043A94F6CFF7018681978102C08FEF52
S11309109FEF2C96E2E10C944F05FC010590615089
S113092070400110D8F7809590958E0F9F1F089501
S1130930FC016150704001900110D8F780959095AA
S11309408E0F9F1F08950F931F93CF93DF93182F3C
S1130950092FEB018B8181FD03C08FEF9FEF20C036
S113096082FF10C04E815F812C813D814217530765
S11309707CF4E881F9819F012F5F3F4F39832883FD
S1130980108306C0E885F985812F0995892B29F7FD
S11309902E813F812F5F3F4F3F832E83812F902FE6
S11309A0DF91CF911F910F910895FA01AA27283062
S11309B051F1203181F1E8946F936E7F6E5F7F4F28
S11309C08F4F9F4FAF4FB1E03ED0B4E03CD0670FA4
S11309D0781F891F9A1FA11D680F791F8A1F911DF7
S11309E0A11D6A0F711D811D911DA11D20D009F447
S11309F068943F912AE0269F11243019305D319389
S1130A00DEF6CF010895462F4770405D4193B3E071
S1130A100FD0C9F7F6CF462F4F70405D4A3318F018
S1130A20495D31FD4052419302D0A9F7EACFB4E0C9
S1130A30A6959795879577956795BA95C9F7009781
S1130A406105710508959B01AC010A2E0694579522
S1130A50479537952795BA95C9F7620F731F841F79
S1130A60951FA01D08952F923F924F925F926F920F
S1130A707F928F929F92AF92BF92CF92DF92EF922A
S1130A80FF920F931F93CF93DF93CDB7DEB7CA1BAB
S1130A90DB0B0FB6F894DEBF0FBECDBF09942A88D6
S1130AA0398848885F846E847D848C849B84AA847E
S1130AB0B984C884DF80EE80FD800C811B81AA810B
S1130AC0B981CE0FD11D0FB6F894DEBF0FBECDBFD6
S10B0AD0ED010895F894FFCF35
S10D0AD8256C69003078256C780065
S9030000FC
