S01400006D61747269782038783878322E73726563C9
S11300000C942A000C9447000C9447000C9447006D
S11300100C9447000C9447000C9447000C94470040
S11300200C9447000C9447000C9447000C94470030
S11300300C9447000C9447000C9447000C94470020
S11300400C9447000C9447000C9447000C94470010
S11300500C94470011241FBECFE5D4E0DEBFCDBF12
S113006012E0A0E6B0E0ECE2F1E002C005900D92EF
S1130070A033B107D9F722E0A0E3B2E001C01D929A
S1130080A033B207E1F70E9449000C9494000C9449
S113009000008FEF87BB81BB8ABB84BB60E070E04C
S11300A008E010E020E730E00F2EF0E68F2EF0E0BD
S11300B09F2EF02D0F2EFEEFEF2EF02DF12CC12CE4
S11300C0D12C2AC085BBB0803296B094BBBAC9EF9C
S11300D0D0E02197F1F700C00000880F991F019626
S11300E0E217F30779F78D919C911197880F991F67
S11300F0019611969C938E934150510941155105D7
S113010021F0F4018E2D9F2DDDCF6F5F7F4F68307E
S1130110710514F06C2D7D2D402F512FDB01AA0F9A
S10F0120BB1FA05ABF4FEDCFF894FFCFD7
S113012C8100EF00EF00EF00EF00EF00ED00F300B3
S113013C03000100C800CC00C80001000300FF004C
S113014C0000000024002400000000009900FF00BF
S113015C810000003C003C003C0018009900FF00AA
S113016C000000003C003C00180000008100FF006F
S113017C000000002400240024003C003C00FF008C
S113018C00000000E400E400E400FC00FF00FF00B9
S113019C810000003C003C002C0008008900FF009A
S11301AC00000000E700E700E70000000000FF008B
S11301BC3C003C00000000003C003C00FF00FF0041
S11301CCFF009F001C003C0000008000FC00FF00AE
S11301DC00000000E700C30099003C007E00FF0013
S11301ECFF00000000003F003F003F003F00FF0005
S11301FC00000000F900F300F300F9000000000017
S113020C00000000F100E300C7008F0000000000B4
S113021C810000003C003C003C0000008100FF0019
S113022CFF0000000000CC00CC00C000E100FF0087
S113023C810000003C002C001C0080004100FF00E9
S113024C00000000CC008C0020007100FF00FF00B7
S113025CFF009900300064000C009900FF00FF00BF
S113026CFF00FC00FC0000000000FC00FC00FF0090
S113027C800000003F003F003F0000008000FF00B2
S113028CC00080001F003F001F008000C000FF0062
S113029CC00080003F000F000F003F008000C00032
S11302AC3C009900C300E700C30099003C00FF0028
S11302BCF800F100E30007000700E300F100F80088
S11302CC3C001C000C002400300038003C00FF00F3
S11302DCFF00FF00FF00FF00FF00FF00FF00FF0016
S11302ECFF00FF00FF00FF00FF00FF00FF00FF0006
S9030000FC
