S00E000038534552564F2E737265634F
S11300000C942A000C943F000C943F000C943F0085
S11300100C943F000C943F000C943F000C943F0060
S11300200C943F000C943F000C943F000C943F0050
S11300300C943F000C943F000C943F000C943F0040
S11300400C943F000C943F000C943F000C943F0030
S11300500C943F0011241FBECFE5D4E0DEBFCDBF1A
S113006010E0A0E6B0E0E4E7FCE102C005900D92E8
S1130070A436B107D9F70E94E40A0C94380E0C9404
S113008000002F923F924F925F926F927F928F92D5
S11300909F92AF92BF92CF92DF92EF92FF920F9313
S11300A01F93CF93DF93CDB7DEB72C970FB6F89499
S11300B0DEBF0FBECDBF382E2A013B0148015901D6
S11300C0FA82E9828FEF8ABB20E030E045E353E413
S11300D0C301B2010E94820C88230CF02EC320E0DD
S11300E030E045E353E4C501B4010E94820C882347
S11300F00CF023C320E030E040E351E4C301B2013B
S11301000E94D50D20E030E04AEF53E40E941E0C1B
S11301106B017C0120E030E040E351E4C501B4010F
S11301200E94D50D20E030E04AEF53E40E941E0CFB
S11301306B837C838D839E839B01AC01C701B601D5
S11301400E94D10D18160CF07BC1C701B6010E94A4
S1130150EE0C2B013C01882777FD8095982F0E9497
S1130160210D6B017C019B01AC016B817C818D8134
S11301709E810E94820C88230CF0DFC281E090E013
S113018002C0880F991F3A94E2F78F83282F209595
S1130190288789819A819A87898700E21EE4041955
S11301A015090F2EF8EC2F2E312CF02D5C864B8682
S11301B08BB39F81892B8BBB2BEA3AEA4AE250E44A
S11301C0C701B6010E94D50D4B015C0120E030E06F
S11301D040E85FE30E94820C88230CF470C0A701FE
S11301E09601C701B6010E941E0C2B013C0120E0C0
S11301F03FEF4FE757E40E94D10D18160CF048C0AA
S113020020E030E04AE754E4C701B6010E94860CBE
S11302104B015C0120E030E04AEF54E40E94D50D2C
S11302206B017C0120E030E040E85FE30E94820C37
S113023088233CF120E03FEF4FE757E4C701B601C4
S11302400E94D10D1816C4F420E030E040E251E4DD
S1130250C501B4010E94D50D0E94F30C611571050E
S113026081F12B853C85C1010197F1F7615071093A
S113027061157105C1F727C0C701B6010E94F30CCF
S113028002C061E070E0CB010197F1F760E01EC0AD
S113029020E030E04FE753E4C501B4010E94D10DE2
S11302A0181644F4C301B2010E94F30CCB01019768
S11302B0F1F70EC0C501B4010E94F30C07C061E060
S11302C005C060E003C03C872B8760E06A95F1F7C6
S11302D08BB3E8858E238BBBB801882777FD809587
S11302E0982F0E94210D6B017C012BEA3AEA4AE225
S11302F050E40E94D50D4B015C0120E030E040E861
S11303005FE30E94820C88230CF470C0A70196015D
S1130310C701B6010E941E0C2B013C0120E03FEFF7
S11303204FE757E40E94D10D18160CF048C020E0A6
S113033030E04AE754E4C701B6010E94860C4B0141
S11303405C0120E030E04AEF54E40E94D50D6B01DB
S11303507C0120E030E040E85FE30E94820C8823C7
S11303603CF120E03FEF4FE757E4C701B6010E949C
S1130370D10D1816C4F420E030E040E251E4C50188
S1130380B4010E94D50D0E94F30C6115710581F131
S11303902B853C85C1010197F1F761507109611505
S11303A07105C1F727C0C701B6010E94F30C02C052
S11303B061E070E0CB010197F1F760E01EC020E03E
S11303C030E04FE753E4C501B4010E94D10D181683
S11303D044F4C301B2010E94F30CCB010197F1F77D
S11303E00EC0C501B4010E94F30C07C061E005C052
S11303F060E003C03C872B8760E06A95F1F72B85AA
S11304003C8589819A81281B390B3C872B87B9014C
S1130410882777FD8095982F0E94210D6B017C0120
S1130420E985FA850E0F1F1F9B01AC016B817C814E
S11304308D819E810E94820C88230CF4B9CE7DC1EB
S1130440C701B6010E94EE0C2B013C01882777FD01
S11304508095982F0E94210D6B017C019B01AC01BA
S11304606B817C818D819E810E94D10D18160CF0C8
S113047064C181E090E002C0880F991F3A94E2F7CA
S11304808F83F82FF095F88729813A81319521954A
S113049031093A87298700E21EE4041915090F2E51
S11304A0F8EC2F2E312CF02D5C864B868BB33F81DC
S11304B0832B8BBB2BEA3AEA4AE250E4C701B6012C
S11304C00E94D50D4B015C0120E030E040E85FE381
S11304D00E94820C88230CF470C0A7019601C70106
S11304E0B6010E941E0C2B013C0120E03FEF4FE7B8
S11304F057E40E94D10D18160CF048C020E030E0FB
S11305004AE754E4C701B6010E94860C4B015C0122
S113051020E030E04AEF54E40E94D50D6B017C01E9
S113052020E030E040E85FE30E94820C88233CF145
S113053020E03FEF4FE757E4C701B6010E94D10D19
S11305401816C4F420E030E040E251E4C501B401DF
S11305500E94D50D0E94F30C6115710581F12B8564
S11305603C85C1010197F1F761507109611571056D
S1130570C1F727C0C701B6010E94F30C02C061E0B5
S113058070E0CB010197F1F760E01EC020E030E09D
S11305904FE753E4C501B4010E94D10D181644F489
S11305A0C301B2010E94F30CCB010197F1F70EC015
S11305B0C501B4010E94F30C07C061E005C060E00E
S11305C003C03C872B8760E06A95F1F78BB398856D
S11305D089238BBBB801882777FD8095982F0E94CB
S11305E0210D6B017C012BEA3AEA4AE250E40E94B5
S11305F0D50D4B015C0120E030E040E85FE30E9450
S1130600820C88230CF470C0A7019601C701B601BF
S11306100E941E0C2B013C0120E03FEF4FE757E402
S11306200E94D10D18160CF048C020E030E04AE7D3
S113063054E4C701B6010E94860C4B015C0120E022
S113064030E04AEF54E40E94D50D6B017C0120E0B8
S113065030E040E85FE30E94820C88233CF120E014
S11306603FEF4FE757E4C701B6010E94D10D1816BA
S1130670C4F420E030E040E251E4C501B4010E943A
S1130680D50D0E94F30C6115710581F12B853C8514
S1130690C1010197F1F76150710961157105C1F745
S11306A027C0C701B6010E94F30C02C061E070E0EC
S11306B0CB010197F1F760E01EC020E030E04FE786
S11306C053E4C501B4010E94D10D181644F4C301CA
S11306D0B2010E94F30CCB010197F1F70EC0C501E2
S11306E0B4010E94F30C07C061E005C060E003C0E0
S11306F03C872B8760E06A95F1F7EB85FC852981BF
S11307003A81E20FF31FFC87EB87BF01882777FD4F
S11307108095982F0E94210D6B017C0189859A8513
S1130720080F191FA70196016B817C818D819E8121
S11307300E94D10D18160CF4B9CE2C960FB6F8946D
S1130740DEBF0FBECDBFDF91CF911F910F91FF9000
S1130750EF90DF90CF90BF90AF909F908F907F905D
S11307606F905F904F903F902F9008952F923F92FB
S11307704F925F926F927F928F929F92AF92BF92AD
S1130780CF92DF92EF92FF920F931F93CF93DF9359
S11307900F2EF4E12F2E312CF02DC8ECD0E000E226
S11307A01EE483EE93E0909363008093620081ECF7
S11307B097E090936100809360009AE09BBB609106
S11307C0620070916300882777FD8095982F0E94BE
S11307D0210D6B017C012BEA3AEA4AE250E40E94C3
S11307E0D50D4B015C0120E030E040E85FE30E945E
S11307F0820C88230CF46EC0A7019601C701B601D0
S11308000E941E0C2B013C0120E03FEF4FE757E410
S11308100E94D10D18160CF046C020E030E04AE7E3
S113082054E4C701B6010E94860C4B015C0120E030
S113083030E04AEF54E40E94D50D6B017C0120E0C6
S113084030E040E85FE30E94820C88232CF120E032
S11308503FEF4FE757E4C701B6010E94D10D1816C8
S1130860B4F420E030E040E251E4C501B4010E9458
S1130870D50D0E94F30C6115710571F1CE0101973C
S1130880F1F76150710961157105C1F727C0C701FE
S1130890B6010E94F30C02C061E070E0CB01019745
S11308A0F1F760E01CC020E030E04FE753E4C501FD
S11308B0B4010E94D10D181644F4C301B2010E9480
S11308C0F30CCB010197F1F70CC0C501B4010E94F0
S11308D0F30C05C061E003C060E001C060E06A950C
S11308E0F1F71BBA8091620090916300B801681B14
S11308F0790B882777FD8095982F0E94210D6B0135
S11309007C012BEA3AEA4AE250E40E94D50D4B01FD
S11309105C0120E030E040E85FE30E94820C882321
S11309200CF46EC0A7019601C701B6010E941E0C0B
S11309302B013C0120E03FEF4FE757E40E94D10D2B
S113094018160CF046C020E030E04AE754E4C70132
S1130950B6010E94860C4B015C0120E030E04AEFB6
S113096054E40E94D50D6B017C0120E030E040E8A6
S11309705FE30E94820C88232CF120E03FEF4FE7D5
S113098057E4C701B6010E94D10D1816B4F420E053
S113099030E040E251E4C501B4010E94D50D0E944B
S11309A0F30C6115710571F1CE010197F1F76150F6
S11309B0710961157105C1F727C0C701B6010E940D
S11309C0F30C02C061E070E0CB010197F1F760E045
S11309D01CC020E030E04FE753E4C501B4010E949D
S11309E0D10D181644F4C301B2010E94F30CCB01DB
S11309F00197F1F70CC0C501B4010E94F30C05C0C6
S1130A0061E003C060E001C060E06A95F1F780EA4C
S1130A108BBB6091600070916100882777FD8095A1
S1130A20982F0E94210D6B017C012BEA3AEA4AE2DD
S1130A3050E40E94D50D4B015C0120E030E040E819
S1130A405FE30E94820C88230CF46EC0A701960118
S1130A50C701B6010E941E0C2B013C0120E03FEFB0
S1130A604FE757E40E94D10D18160CF046C020E061
S1130A7030E04AE754E4C701B6010E94860C4B01FA
S1130A805C0120E030E04AEF54E40E94D50D6B0194
S1130A907C0120E030E040E85FE30E94820C882380
S1130AA02CF120E03FEF4FE757E4C701B6010E9465
S1130AB0D10D1816B4F420E030E040E251E4C50151
S1130AC0B4010E94D50D0E94F30C6115710571F1FA
S1130AD0CE010197F1F76150710961157105C1F7F4
S1130AE027C0C701B6010E94F30C02C061E070E0A8
S1130AF0CB010197F1F760E01CC020E030E04FE744
S1130B0053E4C501B4010E94D10D181644F4C30185
S1130B10B2010E94F30CCB010197F1F70CC0C5019F
S1130B20B4010E94F30C05C061E003C060E001C0A1
S1130B3060E06A95F1F71BBA8091600090916100C2
S1130B40B801681B790B882777FD8095982F0E9440
S1130B50210D6B017C012BEA3AEA4AE250E40E943F
S1130B60D50D4B015C0120E030E040E85FE30E94DA
S1130B70820C88230CF46EC0A7019601C701B6014C
S1130B800E941E0C2B013C0120E03FEF4FE757E48D
S1130B900E94D10D18160CF046C020E030E04AE760
S1130BA054E4C701B6010E94860C4B015C0120E0AD
S1130BB030E04AEF54E40E94D50D6B017C0120E043
S1130BC030E040E85FE30E94820C88232CF120E0AF
S1130BD03FEF4FE757E4C701B6010E94D10D181645
S1130BE0B4F420E030E040E251E4C501B4010E94D5
S1130BF0D50D0E94F30C6115710571F1CE010197B9
S1130C00F1F76150710961157105C1F727C0C7017A
S1130C10B6010E94F30C02C061E070E0CB010197C1
S1130C20F1F760E01CC020E030E04FE753E4C50179
S1130C30B4010E94D10D181644F4C301B2010E94FC
S1130C40F30CCB010197F1F70CC0C501B4010E946C
S1130C50F30C05C061E003C060E001C060E06A9588
S1130C60F1F791E0291A31082114310409F099CDE2
S1130C700F2EF4E62F2E312CF02DC8ECD0E000E23C
S1130C801EE485E793E090936300809362008FE213
S1130C9098E0909361008093600095E09BBB609125
S1130CA0620070916300882777FD8095982F0E94D9
S1130CB0210D6B017C012BEA3AEA4AE250E40E94DE
S1130CC0D50D4B015C0120E030E040E85FE30E9479
S1130CD0820C88230CF46EC0A7019601C701B601EB
S1130CE00E941E0C2B013C0120E03FEF4FE757E42C
S1130CF00E94D10D18160CF046C020E030E04AE7FF
S1130D0054E4C701B6010E94860C4B015C0120E04B
S1130D1030E04AEF54E40E94D50D6B017C0120E0E1
S1130D2030E040E85FE30E94820C88232CF120E04D
S1130D303FEF4FE757E4C701B6010E94D10D1816E3
S1130D40B4F420E030E040E251E4C501B4010E9473
S1130D50D50D0E94F30C6115710571F1CE01019757
S1130D60F1F76150710961157105C1F727C0C70119
S1130D70B6010E94F30C02C061E070E0CB01019760
S1130D80F1F760E01CC020E030E04FE753E4C50118
S1130D90B4010E94D10D181644F4C301B2010E949B
S1130DA0F30CCB010197F1F70CC0C501B4010E940B
S1130DB0F30C05C061E003C060E001C060E06A9527
S1130DC0F1F71BBA8091620090916300B801681B2F
S1130DD0790B882777FD8095982F0E94210D6B0150
S1130DE07C012BEA3AEA4AE250E40E94D50D4B0119
S1130DF05C0120E030E040E85FE30E94820C88233D
S1130E000CF46EC0A7019601C701B6010E941E0C26
S1130E102B013C0120E03FEF4FE757E40E94D10D46
S1130E2018160CF046C020E030E04AE754E4C7014D
S1130E30B6010E94860C4B015C0120E030E04AEFD1
S1130E4054E40E94D50D6B017C0120E030E040E8C1
S1130E505FE30E94820C88232CF120E03FEF4FE7F0
S1130E6057E4C701B6010E94D10D1816B4F420E06E
S1130E7030E040E251E4C501B4010E94D50D0E9466
S1130E80F30C6115710571F1CE010197F1F7615011
S1130E90710961157105C1F727C0C701B6010E9428
S1130EA0F30C02C061E070E0CB010197F1F760E060
S1130EB01CC020E030E04FE753E4C501B4010E94B8
S1130EC0D10D181644F4C301B2010E94F30CCB01F6
S1130ED00197F1F70CC0C501B4010E94F30C05C0E1
S1130EE061E003C060E001C060E06A95F1F780E56D
S1130EF08BBB6091600070916100882777FD8095BD
S1130F00982F0E94210D6B017C012BEA3AEA4AE2F8
S1130F1050E40E94D50D4B015C0120E030E040E834
S1130F205FE30E94820C88230CF46EC0A701960133
S1130F30C701B6010E941E0C2B013C0120E03FEFCB
S1130F404FE757E40E94D10D18160CF046C020E07C
S1130F5030E04AE754E4C701B6010E94860C4B0115
S1130F605C0120E030E04AEF54E40E94D50D6B01AF
S1130F707C0120E030E040E85FE30E94820C88239B
S1130F802CF120E03FEF4FE757E4C701B6010E9480
S1130F90D10D1816B4F420E030E040E251E4C5016C
S1130FA0B4010E94D50D0E94F30C6115710571F115
S1130FB0CE010197F1F76150710961157105C1F70F
S1130FC027C0C701B6010E94F30C02C061E070E0C3
S1130FD0CB010197F1F760E01CC020E030E04FE75F
S1130FE053E4C501B4010E94D10D181644F4C301A1
S1130FF0B2010E94F30CCB010197F1F70CC0C501BB
S1131000B4010E94F30C05C061E003C060E001C0BC
S113101060E06A95F1F71BBA8091600090916100DD
S1131020B801681B790B882777FD8095982F0E945B
S1131030210D6B017C012BEA3AEA4AE250E40E945A
S1131040D50D4B015C0120E030E040E85FE30E94F5
S1131050820C88230CF46EC0A7019601C701B60167
S11310600E941E0C2B013C0120E03FEF4FE757E4A8
S11310700E94D10D18160CF046C020E030E04AE77B
S113108054E4C701B6010E94860C4B015C0120E0C8
S113109030E04AEF54E40E94D50D6B017C0120E05E
S11310A030E040E85FE30E94820C88232CF120E0CA
S11310B03FEF4FE757E4C701B6010E94D10D181660
S11310C0B4F420E030E040E251E4C501B4010E94F0
S11310D0D50D0E94F30C6115710571F1CE010197D4
S11310E0F1F76150710961157105C1F727C0C70196
S11310F0B6010E94F30C02C061E070E0CB010197DD
S1131100F1F760E01CC020E030E04FE753E4C50194
S1131110B4010E94D10D181644F4C301B2010E9417
S1131120F30CCB010197F1F70CC0C501B4010E9487
S1131130F30C05C061E003C060E001C060E06A95A3
S1131140F1F791E0291A31082114310409F099CDFD
S1131150DF91CF911F910F91FF90EF90DF90CF908F
S1131160BF90AF909F908F907F906F905F904F90C3
S11311703F902F9008952F923F924F925F926F92DB
S11311807F928F929F92AF92BF92CF92DF92EF9213
S1131190FF920F931F93CF93DF93CDB7DEB72797BB
S11311A00FB6F894DEBF0FBECDBFA82ECB01BA0197
S11311B0B22E2701380120E030E040E351E40E94E0
S11311C0D50D20E030E04AEF53E40E941E0C6B0181
S11311D07C0120E030E040E351E4C301B2010E940D
S11311E0D50D20E030E04AEF53E40E941E0C6983E1
S11311F07A838B839C832BB381E090E08C0102C0C3
S1131200000F111FAA94E2F7202B2BBB2BB31C0158
S113121002C0220C331CBA94E2F7822F82298BBBC2
S11312202BEA3AEA4AE250E4C701B6010E94D50D1E
S11312304B015C0120E030E040E85FE30E94820C57
S113124088230CF474C0A7019601C701B6010E945B
S11312501E0C2B013C0120E03FEF4FE757E40E94B6
S1131260D10D18160CF04BC020E030E04AE754E4EE
S1131270C701B6010E94860C2B013C0120E030E03E
S11312804AEF54E40E94D50D4B015C0120E030E0AC
S113129040E85FE30E94820C88235CF120E03FEF8A
S11312A04FE757E4C501B4010E94D10D1816E4F4C8
S11312B020E030E040E251E4C301B2010E94D50DC8
S11312C00E94F30C61157105A1F128EC30E05F81F7
S11312D04E81C9010197F1F76150710961157105DA
S11312E0C1F75F834E8325C0C501B4010E94F30C8E
S11312F002C061E070E0CB010197F1F71AC020E071
S113130030E04FE753E4C501B4010E94D10D181633
S113131044F4C301B2010E94F30CCB010197F1F72D
S11313200BC0C501B4010E94F30C6F8302C081E0BD
S11313308F838F818A95F1F78BB3009508230BBBBC
S1131340A701960169817A818B819C810E941D0C81
S11313506B017C012BEA3AEA4AE250E40E94D50D83
S11313604B015C0120E030E040E85FE30E94820C26
S113137088230CF472C0A7019601C701B6010E942C
S11313801E0C2B013C0120E03FEF4FE757E40E9485
S1131390D10D18160CF049C020E030E04AE754E4BF
S11313A0C701B6010E94860C4B015C0120E030E0CD
S11313B04AEF54E40E94D50D6B017C0120E030E03B
S11313C040E85FE30E94820C88234CF120E03FEF69
S11313D04FE757E4C701B6010E94D10D1816D4F4A3
S11313E020E030E040E251E4C501B4010E94D50D93
S11313F00E94F30C6115710591F128EC30E04E81E7
S1131400C9010197F1F76150710961157105C1F7BF
S11314104E8325C0C701B6010E94F30C02C061E0EF
S113142070E0CB010197F1F71AC020E030E04FE7FC
S113143053E4C501B4010E94D10D181644F4C3014C
S1131440B2010E94F30CCB010197F1F70BC0C50167
S1131450B4010E94F30C6D8302C0E1E0ED838D8141
S11314608A95F1F78BB3922D909589238BBB2981B3
S11314703A814B815C8160E070E48CE996E40E94DF
S11314801D0C6B017C012BEA3AEA4AE250E40E940B
S1131490D50D4B015C0120E030E040E85FE30E94A1
S11314A0820C88230CF472C0A7019601C701B6010F
S11314B00E941E0C2B013C0120E03FEF4FE757E454
S11314C00E94D10D18160CF049C020E030E04AE724
S11314D054E4C701B6010E94860C4B015C0120E074
S11314E030E04AEF54E40E94D50D6B017C0120E00A
S11314F030E040E85FE30E94820C88234CF120E056
S11315003FEF4FE757E4C701B6010E94D10D18160B
S1131510D4F420E030E040E251E4C501B4010E947B
S1131520D50D0E94F30C6115710591F128EC30E0A2
S11315304E81C9010197F1F7615071096115710577
S1131540C1F74E8325C0C701B6010E94F30C02C047
S113155061E070E0CB010197F1F71AC020E030E0C0
S11315604FE753E4C501B4010E94D10D181644F4A9
S1131570C301B2010E94F30CCB010197F1F70BC038
S1131580C501B4010E94F30C6E8302C0F1E0FE8336
S11315908E818A95F1F727960FB6F894DEBF0FBEB9
S11315A0CDBFDF91CF911F910F91FF90EF90DF900E
S11315B0CF90BF90AF909F908F907F906F905F90EF
S11315C04F903F902F9008958FEF8ABB17BA88BB36
S11315D00F2EFFE0AF2EF02DB12CCA2CDB2CB09BCC
S11315E00E94B603B19929C00F2EF2E3EF2EF12C1D
S11315F0F02D00E010E024EB32E440E050E06FE036
S113160073E484E090E00E94410000E010E024E3F1
S113161032E440E050E067E073E485E090E00E944B
S1131620410000E010E02FE033E440E050E064EBE0
S113163072E484E090E00E944100B39969C00F2EE7
S1131640F2E3EF2EF12CF02D00E010E024EB32E475
S113165040E050E064E172E480E090E00E944100E8
S113166000E010E0980140E050E064EB72E481E0B7
S113167090E00E94410000E010E024E132E440E008
S113168050E064EB72E480E090E00E94410000E0EE
S113169010E024EB32E440E050E064E172E482E0E4
S11316A090E00E94410000E010E024E332E440E0D6
S11316B050E067E073E483E090E00E94410000E0C2
S11316C010E024E132E440E050E064EB72E482E0B4
S11316D090E00E944100CC2DDD2DE12CF12C04EB97
S11316E012E423E030E040E050E064E372E481E09F
S11316F090E00E94BB0827E030E040E050E064E363
S113170072E485E090E00E94BB082197209729F7B6
S1131710B29965CF0F2EF2E3EF2EF12CF02D00E0FD
S113172010E024EB32E440E050E06FE073E486E044
S113173090E00E94410000E010E024E333E440E044
S113174050E067E073E487E090E00E94410000E02D
S113175010E02FE033E440E050E064EB72E486E014
S113176090E00E94410000E010E024EB32E440E00D
S113177050E06FE073E484E090E00E94410000E0F8
S113178010E027E033E440E050E064E372E485E0F5
S113179090E00E94410000E010E02FE033E440E0DC
S11317A050E064EB72E484E090E00E94410000E0C9
S11317B010E024EB32E440E050E064E172E482E0C3
S11317C090E00E94410000E010E024EB32E440E0AD
S11317D050E064E372E483E090E00E94410000E0A2
S11317E010E024E132E440E050E064EB72E482E093
S11317F090E00E944100CA2DDB2DE12CF12C0AEF70
S113180012E423E030E040E050E064EB72E481E075
S113181090E00E94BB08E12CF12C07E013E427E0E0
S113182030E040E050E064EB72E485E090E00E9438
S1131830BB082197209709F7D2CE5058BB27AA2777
S11318400ED075C166D130F06BD120F031F49F3FDA
S113185011F41EF45BC10EF4E095E7FB51C1E92FCE
S113186077D180F3BA17620773078407950718F0D6
S113187071F49EF58FC10EF4E0950B2EBA2FA02DB6
S11318800B01B90190010C01CA01A0011124FF2729
S1131890591B99F0593F50F4503E68F11A16F04024
S11318A0A22F232F342F4427585FF3CF4695379523
S11318B02795A795F0405395C9F77EF41F16BA0BE8
S11318C0620B730B840BBAF09150A1F0FF0FBB1F96
S11318D0661F771F881FC2F70EC0BA0F621F731FDF
S11318E0841F48F4879577956795B795F7959E3F3C
S11318F008F0B3CF9395880F08F09927EE0F9795CA
S113190087950895D9D008F481E008950CD00FC1CB
S113191007D140F0FED030F021F45F3F19F0F0C061
S1131920511139C1F3C014D198F39923C9F3552344
S1131930B1F3951B550BBB27AA27621773078407BE
S113194038F09F5F5F4F220F331F441FAA1FA9F374
S113195033D00E2E3AF0E0E830D091505040E69566
S1131960001CCAF729D0FE2F27D0660F771F881FC7
S1131970BB1F261737074807AB07B0E809F0BB0BB6
S1131980802DBF01FF2793585F4F2AF09E3F5105DA
S113199068F0B6C000C15F3FECF3983EDCF3869577
S11319A077956795B795F7959F5FC9F7880F911D50
S11319B09695879597F90895E1E0660F771F881F3C
S11319C0BB1F621773078407BA0720F0621B730BEF
S11319D0840BBA0BEE1F88F7E095089504D0689441
S11319E0B111D9C00895BCD088F09F5790F0B92F99
S11319F09927B751A0F0D1F0660F771F881F991F60
S1131A001AF0BA95C9F712C0B13081F0C3D0B1E071
S1131A100895C0C0672F782F8827B85F39F0B93F81
S1131A20CCF3869577956795B395D9F73EF4909561
S1131A308095709561957F4F8F4F9F4F0895E894DF
S1131A4009C097FB3EF490958095709561957F4F02
S1131A508F4F9F4F9923A9F0F92F96E9BB279395B0
S1131A60F695879577956795B795F111F8CFFAF4C0
S1131A70BB0F11F460FF1BC06F5F7F4F8F4F9F4FF1
S1131A8016C0882311F096E911C0772321F09EE84F
S1131A90872F762F05C0662371F096E8862F70E0B5
S1131AA060E02AF09A95660F771F881FDAF7880F8F
S1131AB09695879597F90895990F0008550FAA0BE5
S1131AC0E0E8FEEF16161706E807F907C0F012164D
S1131AD01306E407F50798F0621B730B840B950B50
S1131AE039F40A2661F0232B242B252B21F40895A5
S1131AF00A2609F4A140A6958FEF811D811D089542
S1131B0097F99F6780E870E060E008959FEF80ECAC
S1131B10089500240A94161617061806090608954F
S1131B2000240A9412161306140605060895092EB5
S1131B300394000C11F4882352F0BB0F40F4BF2B24
S1131B4011F460FF04C06F5F7F4F8F4F9F4F089564
S1131B5057FD9058440F551F59F05F3F71F047955A
S1131B60880F97FB991F61F09F3F79F0879508953F
S1131B70121613061406551FF2CF4695F1DF08C05E
S1131B80161617061806991FF1CF8695710561057B
S1131B9008940895E894BB2766277727CB0197F923
S1131BA008958ADF08F48FEF08950BD0C0CFB1DF1A
S1131BB028F0B6DF18F0952309F0A2CFA7CF11249F
S1131BC0EACFC6DFA0F3959FD1F3950F50E0551FE0
S1131BD0629FF001729FBB27F00DB11D639FAA277E
S1131BE0F00DB11DAA1F649F6627B00DA11D661FCD
S1131BF0829F2227B00DA11D621F739FB00DA11DEE
S1131C00621F839FA00D611D221F749F3327A00DA7
S1131C10611D231F849F600D211D822F762F6A2F43
S1131C2011249F5750408AF0E1F088234AF0EE0FC8
S1131C30FF1FBB1F661F771F881F91505040A9F7D5
S1131C409E3F510570F05CCFA6CF5F3FECF3983E0A
S1131C50DCF3869577956795B795F795E7959F5F3C
S1131C60C1F7FE2B880F911D9695879597F90895D6
S1071C70F894FFCF12
S1071C74F406B004BA
S9030000FC
