:100000000C942A000C9434000C9434000C943400AA
:100010000C9434000C9434000C9434000C94340090
:100020000C9434000C9434000C9434000C94340080
:100030000C9434000C9434000C9434000C94340070
:100040000C9434000C9434000C9434000C94340060
:100050000C94340011241FBECFE5D4E0DEBFCDBF29
:100060000E9436000C9445000C9400008FEF8ABB70
:1000700020E23EE4D89AD998C9010197F1F7D99ABC
:0E008000D898C9010197F1F7F5CFF894FFCF9A
:00000001FF
