:100000000C942A000C9447000C9447000C94470071
:100010000C9447000C9447000C9447000C94470044
:100020000C9447000C9447000C9447000C94470034
:100030000C9447000C9447000C9447000C94470024
:100040000C9447000C9447000C9447000C94470014
:100050000C94470011241FBECFE5D4E0DEBFCDBF16
:1000600011E0A0E6B0E0EAE9FCE002C005900D92E4
:10007000AC36B107D9F721E0ACE6B1E001C01D9282
:10008000A437B207E1F70E9420040C944B060C94AD
:100090000000CF93DF9300D000D0CDB7DEB70E9431
:1000A0008E047A83698389819A81892BD1F01C829D
:1000B0001B828B819C818039914054F48B819C817F
:1000C00001969C838B838B819C8180399140B4F312
:1000D00089819A8101979A83898389819A81892B61
:1000E00031F70F900F900F900F90DF91CF910895FF
:1000F0008FEB87BB82E58DB91EB860E070E080E2CF
:1001000091E40E94490008952BB32F70982F907F9F
:10011000922B9BBBDB9ADB9830E1839FC0011124BB
:10012000822B8BBBDB9ADB9808958FEF8ABBD49A26
:10013000D59AD69AD79ADA98DB98DB9ADD9ADB982B
:100140008FEC97E00197F1F700C0000088E20E9471
:1001500084008FEC97E00197F1F700C00000DA9877
:100160008CE00E9484008FEC97E00197F1F700C0CB
:100170000000DA9886E00E9484008FEC97E00197F7
:10018000F1F700C000000895DA9890E4899F600DAF
:100190001124862F815C0E9484008FEC97E00197E8
:1001A000F1F700C000000895DA9A0E9484008FECF5
:1001B00097E00197F1F700C000000895CF93DF9317
:1001C000EC018881882331F021960E94D400899126
:1001D0008111FBCFDF91CF91089561E081E00E9412
:1001E000C40089E690E00E94DE0061E082E00E94A7
:1001F000C40089E690E00E94DE0061E081E00E9498
:10020000C4000895FF920F931F93CF93DF93C82FDD
:10021000D42F152F062FF72EE0916E01F0916F016C
:100220000480F581E02D80640995E0916E01F091E4
:100230006F010480F581E02D8F2D0995E0916E010D
:10024000F0916F010480F581E02D802F0995E091F8
:100250006E01F0916F010480F581E02D812F0995E9
:10026000E0916E01F0916F010480F581E02D8D2FFA
:100270000995C83051F4E0916E01F0916F0104804E
:10028000F581E02D87E8099509C0E0916E01F091B4
:100290006F010480F581E02D85E90995E0916E01FB
:1002A000F0916F010680F781E02D09958F3FB1F342
:1002B000DF91CF911F910F91FF9008950E947800D8
:1002C00040E050E0BA0180E00E9402018130C1F7B5
:1002D0000895CF93DF93EA01E0916C01F0916D01F5
:1002E0000288F389E02D0995CE01DF91CF91089521
:1002F000CF92DF92EF92FF92E0916C01F0916D014D
:10030000A685B785C480D580E680F7809B01AC01C7
:1003100022503109410951090E940A056C0D7D1DC9
:100320008E1D9F1DFF90EF90DF90CF9008958F92CC
:100330009F92AF92BF92CF92DF92EF92FF920F9374
:100340001F93CF93DF93C0916C01D0916D014889C9
:1003500059896B017C01CC0CDD1CEE1CFF1CCC0C04
:10036000DD1CEE1CFF1C2C853D8588809980AA80B1
:10037000BB80840E951EA11CB11C40E050E0C7015B
:10038000B6010E94E804820E931EA41EB51E0C85C1
:100390001D858C859D850E942405AC01C501B40195
:1003A0000E946901EC01980140E050E0C701B601EC
:1003B0000E94E804FE01E60FF71FC080D180E280B2
:1003C000F3808FE0F822CE010E94BC05C701B60180
:1003D000DF91CF911F910F91FF90EF90DF90CF9021
:1003E000BF90AF909F908F9008952F923F924F9221
:1003F0005F926F927F928F929F92AF92BF92CF92B5
:10040000DF92EF92FF920F931F93CF93DF933C0104
:10041000E0916C01F0916D0180849184A284B38499
:1004200086EF88168FEF9806A8068FE0B80608F0CA
:100430007AC0512C412C83010F5F1F4F67C0848508
:1004400095850E942405EC01C501B4010E94780144
:100450006C0D7D1D8E1D9F1DAE010E946901F30173
:100460003080EC019C013E5F232C25C04D915191C1
:100470004517E1F301C0422D411119C0AC01FB0148
:10048000C488D588E12CF12C7601DD24CC24828D22
:10049000938DA0E0B0E0C82AD92AEA2AFB2ACA0133
:1004A0000E94BC056C2D7D2D8E2D9F2D45C0A096E4
:1004B000C217D30741F0BE0148813412DCCFD80106
:1004C000FE013196D3CF0E94BC05FFEFCF1ADF0AA1
:1004D000EF0AFF0AE0916C01F0916D018685978526
:1004E000A0E0B0E0C816D906EA06FB0608F4A7CFDC
:1004F000C501B4010E9497014B015C0186EF88168B
:100500008FEF9806A8068FE0B80690F4E0916C0192
:10051000F0916D0186859785892B51F3C52CD42CDC
:10052000E12CF12C8CCF60E070E080E090E004C022
:1005300060E070E080E090E0DF91CF911F910F913B
:10054000FF90EF90DF90CF90BF90AF909F908F90F3
:100550007F906F905F904F903F902F9008952F92D3
:100560003F924F925F926F927F928F929F92AF9243
:10057000BF92CF92DF92EF92FF920F931F93CF9390
:10058000DF9300D000D0CDB7DEB70E94F5012B017C
:100590003C01312C212C39822A82C301B2010E94F4
:1005A00078016B017C01E0916C01F0916D01868511
:1005B0009785892B09F453C0832C922C84859585CB
:1005C0000E942405AC018401222717FD2095322FBB
:1005D000C901B8016C0D7D1D8E1D9F1D0E94690112
:1005E0005C01E0916C01F0916D0184859585892B0A
:1005F00031F1D5018C91811107C038C0D8018D919E
:100600008D01811108C032C085010F5F1F4FB98174
:10061000BB832A812C830488F589E02D09958B8181
:100620009C8101969C838B83E0916C01F0916D011C
:1006300084859585AB81BC81A817B907F8F2C501FF
:100640000E94BC05BFEF8B1A9B0AE0916C01F091F0
:100650006D01868597858816990608F4AFCFC3018A
:10066000B2010E9497012B013C0197CFC5010E9466
:10067000BC0580E00F900F900F900F90DF91CF910D
:100680001F910F91FF90EF90DF90CF90BF90AF90B0
:100690009F908F907F906F905F904F903F902F90A2
:1006A00008952F923F924F925F926F927F928F9216
:1006B0009F92AF92BF92CF92DF92EF92FF920F93F1
:1006C0001F93CF93DF93E0916C01F0916D018084D3
:1006D0009184A284B38486EF88168FEF9806A806CB
:1006E0008FE0B80608F077C0312C212C67C08485D4
:1006F00095850E942405EC01C501B4010E94780192
:10070000640D751D861D971DAE010E9469016C0167
:10071000E12CF12CF601EE0DFF1D8385803221F5D1
:100720008F01C32DD22DE0916C01F0916D010488F1
:10073000F589E02DD8018D918D0109952196CB3059
:10074000D10589F7E0916C01F0916D010488F5897C
:10075000E02D8AE00995E0916C01F0916D0104882B
:10076000F589E02D8DE00995B0E2EB0EF11CE11466
:1007700082E0F80679F6C6010E94BC05AFEF4A1A7E
:100780005A0A6A0A7A0AE0916C01F0916D01868535
:100790009785A0E0B0E0481659066A067B0608F483
:1007A000A6CFC501B4010E9497014B015C01663FD1
:1007B000BFEF7B078B07BFE09B0768F4E0916C01FC
:1007C000F0916D0186859785892B59F3412C512C29
:1007D000612C712C8CCF80E0DF91CF911F910F9114
:1007E000FF90EF90DF90CF90BF90AF909F908F9051
:1007F0007F906F905F904F903F902F9008955D9BFA
:10080000FECF8CB90895CF93DF93EC0188818823C4
:1008100039F0219690E00E94FF0389918111FACF6F
:10082000DF91CF9108955F9BFECF8CB190E008954A
:1008300010BC83E389B986E880BD88E98AB9089548
:1008400078940E9495000E9418048DE790E00E9421
:10085000DE0061E082E00E94C4000E945E018EE83A
:1008600090E00E94DE0061E082E00E94C4008BE91B
:1008700090E00E94030482ED90E00E9403040F2E9A
:10088000F0E7CF2EF0E0DF2EF02D912CA12C87EE9B
:1008900090E00E94030482EF90E00E9403048AE04B
:1008A00091E00E9403048FE191E00E9403040E9402
:1008B00013048133910519F0C29751F0E8CF0E94DB
:1008C000ED0080E391E00E9403040E945103DFCF1A
:1008D00082E491E00E9403047601092D1A2D0E9402
:1008E0001304EC0199270E94FF038DE0C81741F023
:1008F000F701C1937F010F5F1F4F0930110579F791
:10090000F801E059FF4F10820E94ED008AE591E066
:100910000E940304C6010E94AF02B9CF04D06894BC
:10092000B11150C0089533D088F09F5790F0B92F7F
:100930009927B751A0F0D1F0660F771F881F991F34
:100940001AF0BA95C9F712C0B13081F03AD0B1E0CF
:10095000089537C0672F782F8827B85F39F0B93FDF
:10096000CCF3869577956795B395D9F73EF4909536
:100970008095709561957F4F8F4F9F4F089557FDDC
:100980009058440F551F59F05F3F71F04795880FFD
:1009900097FB991F61F09F3F79F087950895121694
:1009A00013061406551FF2CF4695F1DF08C0161640
:1009B00017061806991FF1CF8695710561050894F1
:1009C0000895E894BB2766277727CB0197F9089508
:1009D000A1E21A2EAA1BBB1BFD010DC0AA1FBB1F43
:1009E000EE1FFF1FA217B307E407F50720F0A21BB5
:1009F000B30BE40BF50B661F771F881F991F1A9422
:100A000069F760957095809590959B01AC01BD014B
:100A1000CF0108950E941505A59F900DB49F900DDC
:100A2000A49F800D911D11240895A29FB001B39F32
:100A3000C001A39F700D811D1124911DB29F700DE7
:100A4000811D1124911D0895CF93DF93823091056C
:100A500010F482E090E0E0917201F091730120E0E7
:100A600030E0A0E0B0E0309739F140815181481783
:100A70005907B8F04817590771F48281938110978C
:100A800029F013969C938E9312972CC09093730128
:100A90008093720127C02115310531F042175307A9
:100AA00018F0A901DB0101C0EF019A01BD01DF01CE
:100AB0000280F381E02DD7CF21153105F9F0281BF5
:100AC000390B2430310580F48A819B8161157105D1
:100AD00021F0FB019383828304C090937301809380
:100AE0007201FE01329644C0FE01E20FF31F8193B2
:100AF000919322503109398328833AC020917001A3
:100B000030917101232B41F42091620030916300F8
:100B10003093710120937001209160003091610049
:100B20002115310541F42DB73EB740916400509135
:100B30006500241B350BE0917001F0917101E21703
:100B4000F307A0F42E1B3F0B2817390778F0AC01F0
:100B50004E5F5F4F2417350748F04E0F5F1F5093CD
:100B60007101409370018193919302C0E0E0F0E045
:100B7000CF01DF91CF910895CF93DF93009709F4D0
:100B800087C0FC01329713821282C0917201D0910A
:100B90007301209781F420813181280F391F8091C2
:100BA0007001909171018217930779F5F0937101AB
:100BB000E09370016DC0DE0120E030E0AE17BF07AA
:100BC00050F412964D915C9113979D01411551057A
:100BD00009F1DA01F3CFB383A28340815181840FFD
:100BE000951F8A179B0771F48D919C911197840F23
:100BF000951F02969183808312968D919C911397F5
:100C0000938382832115310529F4F0937301E093D6
:100C100072013EC0D9011396FC93EE9312974D9149
:100C20005D91A40FB51FEA17FB0779F480819181CC
:100C3000840F951F0296D90111969C938E93828101
:100C4000938113969C938E931297E0E0F0E08A8153
:100C50009B81009719F0FE01EC01F9CFCE010296BD
:100C600028813981820F931F209170013091710189
:100C70002817390769F4309729F4109273011092FC
:100C8000720102C013821282D0937101C09370016D
:0A0C9000DF91CF910895F894FFCF93
:100C9A00000074012000256400202020202020204C
:100CAA00202020202020202020002569002020202C
:100CBA0020454E47494E45455253202020002020CA
:100CCA002020206F6B2020202020000A3D3D3D3D42
:100CDA003D3D3D3D20454E47494E454552532047EF
:100CEA0041524147452053444341524420494E54BE
:100CFA004552464143494E47203D3D3D3D3D3D3DE0
:100D0A000A000A5344534320636172642064657481
:100D1A0065637465640A000A4F5054494F4E533A4A
:100D2A000A000A20203120203A204C4953542041FD
:100D3A004C4C2046494C45530A000A2020322020B8
:100D4A003A205245414420412046494C450A000A6E
:100D5A00456E746572206F7074696F6E203A200058
:100D6A004C495354494E472046494C4553202E2E50
:100D7A002E000A456E746572207468652066696C77
:100D8A0065206E616D65203A200052454144494E06
:0C0D9A00472046494C45202E2E2E00001C
:00000001FF
