:100000000C942A000C943C000C943C000C943C0092
:100010000C943C000C943C000C943C000C943C0070
:100020000C943C000C943C000C943C000C943C0060
:100030000C943C000C943C000C943C000C943C0050
:100040000C943C000C943C000C943C000C943C0040
:100050000C943C0011241FBECFE5D4E0DEBFCDBF21
:1000600020E0A0E6B0E001C01D92A036B207E1F7A3
:100070000E943E000C9474000C94000017BA8FEF9D
:1000800088BB81BB12BA82EA8FBD89E18EBD8CEB41
:100090009BE197BD86BD89B7846089BF789428E9C4
:1000A0003AE340E157E286B597B59695879599BDB5
:1000B00088BDB0990BC039BD28BD6FEF8DE399E4C1
:1000C000615080409040E1F700C00000B199EBCF53
:1000D00059BD48BD6FEF8DE399E461508040904079
:0C00E000E1F700C00000DFCFF894FFCF74
:00000001FF
