S00D0000496E4F75742E7372656328
S113000012C019C018C017C016C015C014C013C040
S113001012C011C010C00FC00EC00DC00CC00BC068
S11300200AC009C008C011241FBECFE5D4E0DEBF5A
S1130030CDBF55D061C0E4CF8E3008F08E503E9ACB
S113004096B1946896B9806487B9369A349BFECF8A
S113005084B195B10895883048F08E3010F48850FA
S11300600895843110F48E50089580E00895883006
S113007038F08E3040F0843148F080E090E008950C
S113008082E390E0089588E390E0089585E390E0AA
S113009008951F93CF93DF93C82FD62FDCDF182F3B
S11300A08C2FE5DFFC01D13059F4208181E090E010
S11300B002C0880F991F1A95E2F7822B80830BC028
S11300C0908121E030E002C0220F331F1A95E2F73D
S11300D0209529232083DF91CF911F91089580E0FB
S11300E0ABDF8D32914020F061E085E0D2DFF7CFC5
S10F00F060E085E0CEDFF3CFF894FFCF92
S9030000FC
