S00F00005053324D4F55532E73726563FC
S11300000C942A000C9447000C945E010C94470055
S11300100C9447000C9447000C9447000C94470040
S11300200C9447000C9447000C9447000C94470030
S11300300C9447000C9447000C9447000C94470020
S11300400C9447000C9447000C9447000C94470010
S11300500C94470011241FBECFE5D4E0DEBFCDBF12
S113006010E0A0E6B0E0E4EEF8E002C005900D92E6
S1130070A636B107D9F720E0A6E6B0E001C01D928C
S1130080AD36B207E1F70E940C010C9470040C9495
S113009000005D9BFECF8CB90895CF93DF93EC01F4
S11300A08881882339F0219690E00E944900899143
S11300B08111FACFDF91CF9108950F931F93CF93BE
S11300C0DF93CDB7DEB72A970FB6F894DEBF0FBE25
S11300D0CDBF9F938F9382E690E09F938F938E0181
S11300E00F5F1F4F1F930F930E949F01C8010E942F
S11300F04D000F900F900F900F900F900F902A9635
S11301000FB6F894DEBF0FBECDBFDF91CF911F9124
S11301100F91089510BC86E689B986E880BD88E908
S11301208AB90895CF93C82F882331F080E290E0F4
S11301300E944900C150D1F7CF9108958DE090E01D
S11301400E9449000895C398C2982BB72F772BBFFC
S1130150C39AEFECF7E03197F1F700C00000C29AC0
S1130160C3988399FECF10926A001092690020E030
S113017041E051E0BC0102C0759567952A95E2F70C
S113018060FF03C0C298452701C0C29A839BFECF7B
S11301908399FECF2091690030916A002F5F3F4F11
S11301A030936A0020936900283031051CF34423FE
S11301B011F0C29801C0C29A839BFECF8399FECFEF
S11301C0C29887EC90E00197F1F700C00000829993
S11301D0FECF8399FECF839902C0829BFCCF8BE034
S11301E090E09093610080936000109267001092F9
S11301F066008BB780688BBF08958FEF90E00E94F4
S1130200A30080EF90E00E94A3008FE891E00197A3
S1130210F1F700C0000008950E948A008FEF87BBA9
S113022018BA83E081BB88E085BF78940E94FD0002
S11302308BEE90E00E94A3000BB607FCFDCF8091EB
S11302406600909167000E945D0082E00E94920027
S11302508BB780688BBF0BB607FCFDCF809166001F
S1130260909167000E945D0082E00E9492008BB72B
S113027080688BBF0BB607FCFDCF80916600909120
S113028067000E945D0082E00E9492008BB7806844
S11302908BBF0BB607FCFDCF809166009091670081
S11302A00E945D000E949E002FEF87E893E1215099
S11302B080409040E1F700C00000BACF1F920F9237
S11302C00FB60F9211242F933F938F939F93809196
S11302D06000909161009C01235031092830310560
S11302E090F42091660030916700359527953093FE
S11302F0670020936600829B06C020583F4F3093CE
S11303006700209366000197009729F0909361009D
S1130310809360000BC08BE090E090936100809329
S113032060008BB78F778BBFC398C2989F918F91D2
S11303303F912F910F900FBE0F901F901895AEE034
S1130340B0E0E5EAF1E00C9447040D891E8986E0EB
S11303508C831A8309838FEF9FE79E838D83AE017D
S1130360475E5F4F6F89788DCE0101960E94C1016F
S1130370EF81F885E00FF11F10822E96E4E00C94D3
S11303806304ACE0B0E0E7ECF1E00C9439047C01E8
S11303906B018A01FC0117821682838181FFBDC132
S11303A0CE0101964C01F7019381F60193FD8591ED
S11303B093FF81916F01882309F4ABC1853239F42D
S11303C093FD859193FF81916F01853229F4B701E3
S11303D090E00E94A903E7CF512C312C20E0203279
S11303E0A0F48B3269F030F4803259F0833269F42E
S11303F020612CC08D3239F0803339F4216026C05D
S11304002260246023C0286021C027FD27C030ED6E
S1130410380F3A3078F426FF06C0FAE05F9E300DBC
S11304201124532E13C08AE0389E300D1124332E2C
S113043020620CC08E3221F426FD6BC1206406C0FC
S11304408C3611F4206802C0883641F4F60193FD1D
S1130450859193FF81916F018111C1CF982F9F7D69
S11304609554933028F40C5F1F4FFFE3F9830DC0BC
S1130470833631F0833771F0833509F05BC022C0D5
S1130480F801808189830E5F1F4F44244394512CCB
S1130490540115C03801F2E06F0E711CF801A08000
S11304A0B18026FF03C0652D70E002C06FEF7FEFBF
S11304B0C5012C870E949E032C0183012C852F7774
S11304C0222E17C03801F2E06F0E711CF801A080D3
S11304D0B18026FF03C0652D70E002C06FEF7FEF8F
S11304E0C5012C870E9493032C012C852068222EA1
S11304F0830123FC1BC0832D90E048165906B0F4F9
S1130500B70180E290E00E94A9033A94F4CFF50188
S113051027FC859127FE81915F01B70190E00E943D
S1130520A90331103A94F1E04F1A510841145104CF
S113053071F7E5C0843611F0893639F5F80127FFE3
S113054007C060817181828193810C5F1F4F08C055
S113055060817181882777FD8095982F0E5F1F4FEA
S11305602F76B22E97FF09C090958095709561956E
S11305707F4F8F4F9F4F2068B22E2AE030E0A401B6
S11305800E94DB03A82EA81844C0853729F42F7EC7
S1130590B22E2AE030E025C0F22FF97FBF2E8F362D
S11305A0C1F018F4883579F0B4C0803719F0883771
S11305B021F0AFC02F2F2061B22EB4FE0DC08B2DC1
S11305C08460B82E09C024FF0AC09F2F9660B92EFC
S11305D006C028E030E005C020E130E002C020E1A0
S11305E032E0F801B7FE07C0608171818281938196
S11305F00C5F1F4F06C06081718180E090E00E5F48
S11306001F4FA4010E94DB03A82EA818FB2DFF771F
S1130610BF2EB6FE0BC02B2D2E7FA51450F4B4FEB6
S11306200AC0B2FC08C02B2D2E7E05C07A2C2B2DBF
S113063003C07A2C01C0752C24FF0DC0FE01EA0D05
S1130640F11D8081803311F4297E09C022FF06C088
S11306507394739404C0822F867809F0739423FDF5
S113066013C020FF06C05A2C731418F4530C5718E7
S1130670732C731468F4B70180E290E02C870E9415
S1130680A90373942C85F5CF731410F4371801C0A3
S1130690312C24FF12C0B70180E390E02C870E9424
S11306A0A9032C8522FF17C021FF03C088E590E031
S11306B002C088E790E0B7010CC0822F867859F019
S11306C021FD02C080E201C08BE227FD8DE2B7016B
S11306D090E00E94A903A51438F4B70180E390E0E8
S11306E00E94A9035A94F7CFAA94F401EA0DF11DCC
S11306F08081B70190E00E94A903A110F5CF3320B7
S113070009F451CEB70180E290E00E94A9033A9423
S1130710F6CFF7018681978102C08FEF9FEF2C9669
S1130720E2E10C945504FC01059061507040011005
S1130730D8F7809590958E0F9F1F0895FC01615006
S1130740704001900110D8F7809590958E0F9F1FEF
S113075008950F931F93CF93DF93182F092FEB0165
S11307608B8181FD03C08FEF9FEF20C082FF10C0FB
S11307704E815F812C813D81421753077CF4E881CF
S1130780F9819F012F5F3F4F39832883108306C06F
S1130790E885F985812F0995892B29F72E813F81D9
S11307A02F5F3F4F3F832E83812F902FDF91CF9177
S11307B01F910F910895FA01AA27283051F1203191
S11307C081F1E8946F936E7F6E5F7F4F8F4F9F4FE1
S11307D0AF4FB1E03ED0B4E03CD0670F781F891F23
S11307E09A1FA11D680F791F8A1F911DA11D6A0FF1
S11307F0711D811D911DA11D20D009F468943F91A4
S11308002AE0269F11243019305D3193DEF6CF01A2
S11308100895462F4770405D4193B3E00FD0C9F768
S1130820F6CF462F4F70405D4A3318F0495D31FDD5
S11308304052419302D0A9F7EACFB4E0A695979528
S1130840879577956795BA95C9F7009761057105FE
S113085008959B01AC010A2E069457954795379548
S11308602795BA95C9F7620F731F841F951FA01DA2
S113087008952F923F924F925F926F927F928F9240
S11308809F92AF92BF92CF92DF92EF92FF920F931B
S11308901F93CF93DF93CDB7DEB7CA1BDB0B0FB625
S11308A0F894DEBF0FBECDBF09942A8839884888E2
S11308B05F846E847D848C849B84AA84B984C88478
S11308C0DF80EE80FD800C811B81AA81B981CE0F6F
S11308D0D11D0FB6F894DEBF0FBECDBFED01089554
S10708E0F894FFCFB6
S10908E40B002569000071
S9030000FC
